:10000000CEEF01F0F76A140FF66E000EF72209002A
:10001000F5501200C0F9A4B0999282F880908883BC
:10002000C6A1868E7F00000E956E966E956A8C68CE
:100030000468056895928C9295908C90086A076A7E
:100040005EEF02F094C496F40401956B9551070895
:100050000EE396BF02D08D9401D08D849694969035
:100060008D9096908D80D8909637952BEFD7000184
:100070001200956A8C6A05BC02D08C9C01D08C8CD5
:10008000959C05B802D08C9801D08C88959805B4C1
:1000900002D08C9401D08C84959495908C805DEFE7
:1000A00000F007C086F408C087F487C494F4CADF60
:1000B00086C494F4C7DF0594DCD795968C86959614
:1000C0008C9695908C901200078AEBDF62EF02F01D
:1000D00094928B9294948B94120094928B82949429
:1000E0008B9480EF00F094928B9294948B8480EFA9
:1000F00000F06CA706D06CA502D0EFD701D0F3D7E3
:1001000001D0E6DF64EF02F0E00E0716086A036A2A
:100110006A51620FE96E000E0320EA6EEF5007127B
:10012000C0DF6A2B070E6A17ADEF00F0E00E07166E
:10013000086A036A6A51620FE96E000E0320EA6ED4
:10014000EF500712AEDF6A07070E6A17ADEF00F037
:100150006CA102D0D9D701D0E9D767EF02F0040E25
:10016000EA6E870EE96EEF500DE0060E016E006A32
:10017000002EFED7012EFBD77B0E006E002EFED781
:10018000EF2EF3D71200938681B627D0140E040108
:10019000876F0001E4DF938681B61FD0000E6CB13B
:1001A000010E010A6C91E8B06C810401856B846BCF
:1001B000000E00016CB5010E010A6C95E8B06C856B
:1001C0006CA70BD085DF040E0401866FFA0E876FD3
:1001D0000001C5DF0401862FF9D7000179EF02F095
:1001E000938A81BA12D0050E6B5F04018307000168
:1001F0006C876B51040806E3050E6B6F010E04015A
:10020000836F0001938A81AAFDD77AEF02F0938869
:1002100081B812D0050E6B270401832B00016C9767
:100220006B512D0806E2320E6B6F090E0401836FCD
:100230000001938881A8FDD77BEF02F0016A026A72
:10024000006A036A04018F5102E18E5118E0100E1A
:10025000906FD8908C378D37003603368F51035C02
:1002600002E18E51005C07E38E51005ED8A00306C8
:100270008F51035ED88001360236902FEAD70001F5
:100280001200956A8C6A04B802D08C9801D08C88D0
:10029000959804BC02D08C9C01D08C8C959C04B4A5
:1002A00002D08C9401D08C84959495928C8267EFC7
:1002B00001F093C494F4C6DE92C494F4C3DE91C4F6
:1002C00094F4C0DE90C494F4BDDE049CDAD7959E0D
:1002D0008C9E959E8C8E95928C92CCEF01F085C46D
:1002E0008DF484C48CF404018F6B640E8E6F000156
:1002F000A5DF02C087F401C086F402C003F0040148
:10030000015000017FDE0401886F85C48DF484C430
:100310008CF48F6B0A0E8E6F000190DF02C08AF49E
:1003200001C089F402C08DF401C08CF404018F6B0C
:100330000A0E8E6F000182DF00C089F4040103C041
:100340008AF403C003F0005000015CDE04018B6FEF
:1003500085C48DF484C48CF48F6B0A0E8E6F0001FB
:100360006DDF00C08CF4040103C08DF403C003F002
:100370000050000147DE04018E6F036A83510001C3
:1003800041DE04018F6F88C490F48BC491F48EC455
:1003900092F4936F00018DD77CEF02F0F86AD09E43
:1003A00093829380310EC86E280EC66EC78EC79C8E
:1003B000066A0D6A0E6A0F6A106A196A1A6A1B6A5F
:1003C0001F6A1E6A1D6A1C6A236A226A216A010E5C
:1003D000206E800E276E266A256A246A2B6A2A6A96
:1003E000296A286A2F6E2E6A316A010E306E336ACE
:1003F000326A800E376E366A396A010E386E3B6A91
:100400003A6A3D6A3C6A3E6A200E3F6E406A010EBF
:10041000416E100E426E436A476A466A456A010E93
:10042000446E4B6A4A6A496A486E4F684E684D6826
:10043000FE0E4C6E800E536E526A516A506A576EB1
:10044000566A556A546A7F0E5B6E5A6859685868D6
:10045000010E5C6E5D6E6A6B6C916C936C956C9723
:100460006C89070E0401836F856B846BC150C00BD0
:100470000F09C16E070EB46E116812681368146814
:1004800015681668176818681D0E5E6E170E5F6E89
:100490001B0E0001606F0F0E616F1D0E626F150E57
:1004A000636F170E646F130E656F030E666F0B0E8E
:1004B000676F090E686F0D0E696FB5D56C930F0EDF
:1004C0006B6F02D605DE15D66CA909D041D66BC07C
:1004D00087F445DE0401842BD8B4852B0001040188
:1004E0008451900804E1852D02D0856B846B000156
:0C04F0004AD676D68CD6F3D6E6D70300A9
:020000040030CA
:0E00000027CC3E1E0087A1000FC00FE00F406E
:00000001FF
;PIC18F4550
;CRC=7D4F  CREATED="21-Dec-20 15:22"
