:040000006BEF01F0B1
:08000800046ED8CF05F0E0CF33
:1000100006F00001E9CF0CF0EACF07F0E1CF08F0DD
:10002000E2CF09F0D9CF0AF0DACF0BF0F3CF12F01C
:10003000F4CF13F0FACF14F0F5CF15F0F6CF16F099
:10004000F7CF17F000C00EF001C00FF002C010F0A3
:1000500003C011F09DA030EF00F09EB074EF00F0EF
:100060000EC000F00FC001F010C002F011C003F08C
:100070000CC0E9FF07C0EAFF078E08C0E1FF09C016
:10008000E2FF0AC0D9FF0BC0DAFF12C0F3FF13C0B2
:10009000F4FF14C0FAFF15C0F5FF16C0F6FF17C035
:1000A000F7FF045006C0E0FF05C0D8FF1000F76A54
:1000B000BE0FF66E000EF7220900F5501200C0F9CF
:1000C000A4B0999282F880908883C6A1868E7F0022
:1000D000F76AE00FF66E000EF7220900F5501200E5
:1000E0007FBFDFEFF7FBFDFE742BFD0ECF6EE80E3A
:1000F000CE6E9E9030EF00F0000E956E966E956A73
:100100008C6819681A6895928C9295908C901D6AEB
:100110001C6AD8EF01F077517819800B7A6F77AFAE
:1001200002D0771F772B78AF02D0781F782B7851C9
:10013000016A775D03E277C000F00CD0006A080E18
:10014000796F773700367851005CD8B0006E013691
:10015000792FF7D77AAF02D0011E012A120073C09F
:1001600077F00A0E786FD7DF036A0050A0DF266EA3
:1001700073C077F00A0E786FCEDF036A015097DF05
:10018000276E75C077F00A0E786FC5DF036A0050DE
:100190008EDF286E75C077F00A0E786FBCDF036AB9
:1001A000015085DF296E76C077F00A0E786FB3DFD5
:1001B000036A00507CDF2A6E76C077F00A0E786FF3
:1001C000AADF036A015073DF2B6EE8EF01F07BC0FA
:1001D0007DF07C6B7C5107080EE37DBF02D08D94CF
:1001E00001D08D84969496908D9096908D80D89025
:1001F0007D377C2BEFD71200956A8C6A1ABC02D02F
:100200008C9C01D08C8C959C1AB802D08C9801D013
:100210008C8895981AB402D08C9401D08C849594D3
:1002200095908C801200036A785152DF016E7A6FCC
:100230007A1F7AC07BF0CBDF79C07AF07A1F7AC060
:100240007BF0C5DF1A98D8DF959A8C8A959A8C9A9C
:1002500095908C9061EF01F07751796F791F79C09B
:100260007BF0B5DF78C079F0791F79C07BF0AFDF24
:100270001A98C2DF959A8C8A959A8C9A95908C9050
:1002800045EF01F077697869E7D767EF01F02E6AEB
:100290002E5007081EE3036A2E50260FE96E000E4B
:1002A0000320EA6EEF3C01D012D0036A2E50260FD5
:1002B000E96E000E0320EA6EEFCF79F02EC078F0E1
:1002C000B2D7A60E006E002EFED70000DBD72E2A76
:1002D000DFD700EF02F0F86AD09E078E93829380FA
:1002E000310EC86E280EC66EC78EC79C1B6A226A66
:1002F000236A246A256A2E6A2F6A306A346A336A4E
:10030000326A316A386A376A366A010E356E800E93
:100310003C6E3B6A3A6A396A406A3F6A3E6A3D6AA5
:10032000446E436A466A010E456E486A476A800E0B
:100330004C6E4B6A4E6A010E4D6E506A4F6A526A9D
:10034000516A536A200E546E556A010E566E100E95
:10035000576E586A5C6A5B6A5A6A010E596E606B26
:100360005F6A5E6A5D6E646963696269FE0E616FF1
:10037000800E686F676B666B656B6C6F6B6B6A6B1F
:10038000696B7F0E706F6F696E696D69010E716FB9
:10039000726FC150C00B0F09C16E070EB46E266894
:1003A0002768286829682A682B682C682D68A4D6D5
:1003B0003C0E936E850ECD6EFD0ECF6EE80ECE6EAA
:1003C000C00EF2129D80736B746B756B766BC7D623
:1003D00074BF03D07451090802E359D711D00A0E33
:1003E000745F732B73513C080BE1736B752B755164
:1003F0003C0806E1756B762B7651180801E1766BA7
:04040000E6D7030038
:020000040030CA
:0E00000027CC3E1E0087A1000FC00FE00F406E
:00000001FF
;PIC18F4550
;CRC=4F1D  CREATED="02-Nov-20 12:38"
