:100000001FEF02F0F76A140FF66E000EF7220900D8
:10001000F5501200C0F9A4B0999282F880908883BC
:10002000C6A1868E7F00000E956E966E956A8C68CE
:100030000468056895928C9295908C90086A076A7E
:10004000AFEF02F099C49BF404019A6B9A51070830
:100050000EE39BBF02D08D9401D08D849694969030
:100060008D9096908D80D8909B379A2BEFD700017A
:100070001200956A8C6A05BC02D08C9C01D08C8CD5
:10008000959C05B802D08C9801D08C88959805B4C1
:1000900002D08C9401D08C84959495908C805DEFE7
:1000A00000F007C089F408C08AF48AC499F4CADF52
:1000B00089C499F4C7DF0594DCD795968C8695960C
:1000C0008C9695908C901200016A026A006A036A0D
:1000D0000401955102E1945118E0100E966FD890EA
:1000E00092379337003603369551035C02E1945101
:1000F000005C07E39451005ED8A003069551035EAF
:10010000D88001360236962FEAD700011200956A90
:100110008C6A04B802D08C9801D08C88959804BC65
:1001200002D08C9C01D08C8C959C04B402D08C9411
:1001300001D08C84959495928C82ADEF00F098C498
:1001400099F480DF97C499F47DDF96C499F47ADF3F
:1001500095C499F477DF049CDAD7959E8C9E959E82
:100160008C8E95928C9230EF01F085C493F484C408
:1001700092F4030E0401956FE80E946F0001A4DF62
:1001800002C08AF401C089F402C003F004010150E6
:10019000000138DF04018B6F85C493F484C492F4AA
:1001A000956B640E946F00018FDF02C08DF401C067
:1001B0008CF402C093F401C092F40401956B0A0E12
:1001C000946F000181DF00C08CF4040103C08DF442
:1001D00003C003F00050000115DF04018E6F85C4D9
:1001E00093F484C492F4956B0A0E946F00016CDF53
:1001F00002C090F401C08FF402C093F401C092F4E5
:100200000401956B0A0E946F00015EDF00C08FF44D
:10021000040103C090F403C003F000500001F2DEBB
:100220000401916F85C493F484C492F4956B0A0E13
:10023000946F000149DF00C092F4040103C093F4FD
:1002400003C003F000500001DDDE0401946F8BC495
:1002500095F48EC496F491C497F4986F00016FD70B
:100260001200E00E0716086A036A6A51620FE96E0F
:10027000000E0320EA6EEF50071213DF6A2B070E01
:100280006A175AEF01F0E00E0716086A036A6A510E
:10029000620FE96E000E0320EA6EEF50071201DFD5
:1002A0006A07070E6A175AEF01F06CA102D0D9D77E
:1002B00001D0E9D7DCEF02F0040EEA6E8A0EE96E97
:1002C000EF500DE0060E016E006A002EFED7012EE3
:1002D000FBD77B0E006E002EFED7EF2EF3D7120059
:1002E000938A81BA38D0140E04018A6F0001E4DFCA
:1002F000938A81BA30D0320E04018427000E852300
:100300008551020809E2FF0A03E18451E70804E28B
:10031000030E856FE80E846F000127DF85C402F0AD
:1003200084C401F00232013202320132023201C0D1
:10033000BEFF02320230300B006EBD50CF0B0010FA
:10034000BD6E040E0401896FFA0E8A6F0001B4DFDE
:100350000401892FF9D70001E0EF02F0938881B8FA
:1003600032D0140E04018A6F0001A6DF938881B891
:100370002AD0320E0401845F000E855B845304E1B1
:10038000855302E1856B846B0001EFDE85C402F0CA
:1003900084C401F00232013202320132023201C061
:1003A000BEFF02320230300B006EBD50CF0B00108A
:1003B000BD6E040E0401896FFA0E8A6F00017CDFA6
:1003C0000401892FF9D70001E1EF02F0938681B68D
:1003D00018D0140E04018A6F00016EDF938681B677
:1003E00010D00401856B846B0001BFDEBE6A040E71
:1003F0000401896FFA0E8A6F00015EDF0401892F04
:10040000F9D70001E2EF02F0938481B416D0140E04
:1004100004018A6F000150DF938481B40ED004017F
:10042000856B030E846F0001A0DEFA0EBE6EBD5018
:10043000CF0BBD6E938481A4FDD7E3EF02F0F86A81
:10044000D09E93829380310EC86E280EC66EC78EE2
:10045000C79C066A0D6A0E6A0F6A106A196A1A6AE0
:100460001B6A1F6A1E6A1D6A1C6A236A226A216A45
:10047000010E206E800E276E266A256A246A2B6A7A
:100480002A6A296A286A2F6E2E6A316A010E306E36
:10049000336A326A800E376E366A396A010E386EF8
:1004A0003B6A3A6A3D6A3C6A3E6A200E3F6E406A89
:1004B000010E416E100E426E436A476A466A456AF3
:1004C000010E446E4B6A4A6A496A486E4F684E682C
:1004D0004D68FE0E4C6E800E536E526A516A506A21
:1004E000576E566A556A546A7F0E5B6E5A68596831
:1004F0005868010E5C6E5D6E6A6B6C916C936C95C6
:100500006C976C89070E0401866F886B876BC150EE
:10051000C00B0F09C16E070EB46E11681268136824
:10052000146815681668176818681D0E5E6E170E39
:100530005F6E1B0E0001606F0F0E616F1D0E626F0C
:10054000150E636F170E646F130E656F030E666FE3
:100550000B0E676F090E686F0D0E696F64D56C9393
:100560000F0E6B6F078A94928B929BDD94948B9401
:100570000C0EBD6EB76AB66A000E0409CA6EF90E9B
:10058000CB6E0401856B846B0001EFDD85C402F046
:1005900084C401F00232013202320132023201C05F
:1005A000BEFF02320230300B006EBD50CF0B001088
:1005B000BD6E6CA904D079D66BC08AF47DDE90D66E
:0A05C000CDD604D721D7F5D70300EC
:020000040030CA
:0E00000027CC3E1E0087A1000FC00FE00F406E
:00000001FF
;PIC18F4550
;CRC=DCF1  CREATED="28-Dec-20 12:58"
