:0400000031EF10F0DC
:08000800046ED8CF05F0E0CF33
:1000100006F00001E9CF0CF0EACF07F0E1CF08F0DD
:10002000E2CF09F0D9CF0AF0DACF0BF0F3CF12F01C
:10003000F4CF13F0FACF14F0F5CF15F0F6CF16F099
:10004000F7CF17F000C00EF001C00FF002C010F0A3
:1000500003C011F09DA030EF00F09EB0CFEF00F094
:100060000EC000F00FC001F010C002F011C003F08C
:100070000CC0E9FF07C0EAFF078E08C0E1FF09C016
:10008000E2FF0AC0D9FF0BC0DAFF12C0F3FF13C0B2
:10009000F4FF14C0FAFF15C0F5FF16C0F6FF17C035
:1000A000F7FF045006C0E0FF05C0D8FF1000F76A54
:1000B000BE0FF66E000EF7220900F5501200C0F9CF
:1000C000A4B0999282F880908883C6A1868E7F0022
:1000D000F76AE00FF66E000EF7220900F5501200E5
:1000E0007FBFDFEFF7FBFDFEF76AF80FF66E000E3D
:1000F000F7220900F5501200000102050304010275
:100100002003070306060205030306060203030491
:100110000703072020070706060303040006060559
:10012000030401010720200700060205030400065E
:1001300002030304202020202020F76A4A0FF66ED5
:10014000010EF7220900F5501200070F1F1F1F1F95
:100150001F1F1F1F1F00000000001C1E1F1F1F1F4E
:100160001F1F00000000001F1F1F1F1F1F1F1F1F3A
:100170001E1C1F1F1F1F1F1F0F071F1F1F00000018
:100180001F1F1F1F1F1F1F1F1F1FF76A9A0FF66ECB
:10019000010EF7220900F550120080C094D404012A
:1001A000792B0B0ECF6EDC0ECE6E9E90000130EFE1
:1001B00000F02A2A44454D2053414E205048414DDD
:1001C0002A2A2000000E956E966E956A8C68196832
:1001D0001A6895928C9295908C901D6A1C6AACEF6F
:1001E00010F0A7C4A9F40401A86BA85107080EE3F6
:1001F000A9BF02D08D9401D08D84969496908D9055
:1002000096908D80D890A937A82BEFD700011200C7
:10021000956A8C6A19B802D08C9801D08C88959810
:1002200019BC02D08C9C01D08C8C959C19B402D046
:100230008C9401D08C84959495928C82120025C068
:10024000A7F4CFDF24C0A7F4CCDF23C0A7F4C9DF15
:1002500022C0A7F4C6DF1994DBDF95968C869596AD
:100260008C9695928C92120004019BC423F0231E5D
:100270009CC422F0221E0001E2DF1200738173C0D1
:100280009BF49AC49CF4F0DF739173C09BF49AC4FE
:100290009CF4EADF1200739599C49AF4EFDF210E03
:1002A000006E002EFED71200040EEA6E960EE96E66
:1002B000EF500DE0060E016E006A002EFED7012EF3
:1002C000FBD77B0E006E002EFED7EF2EF3D7120069
:1002D0007391739373857397380E0401996F0001BE
:1002E000DADF420E006E002EFED700000C0E040175
:1002F000996F0001D0DF420E006E002EFED7000085
:10030000010E0401996F0001C6DF020E0401966F11
:100310000001CADF060E0401996F0001BCDF420E26
:10032000006E002EFED70000B0EF10F004019DC457
:1003300025F0251E9EC424F0241E000180DF12003B
:10034000748574C09DF49CC49EF4F0DF749574C0F1
:100350009DF49CC49EF4EADF1200749999C49CF445
:10036000EFDF12007481748374957497749B92C448
:1003700099F4F3DF100E006E002EFED700000C0E75
:100380000401996F0001E9DF100E006E002EFED708
:100390000000010E0401996F0001DFDF020E04016D
:1003A000966F000181DF060E0401996F0001D5DF11
:1003B000100E006E002EFED7000012000401B15195
:1003C000B303F3CF01F0F4CF00F0B403F3500026F1
:1003D000B251B303F3500020026E00011200040179
:1003E000915303E09369926902D0936B926B000181
:1003F000756B75511F0830E3766B76510F082AE351
:100400000401B26B75C0B1F4B46B200EB36F000180
:10041000D5DF0150010F0401946F000E0220956F8B
:10042000036A000176C002F0D8900236033602500B
:100430000401942703509523770E9425E96E000E4E
:100440009521EA6E93C4ECFFED5292C4EFFF0001D8
:10045000762BD3D7752BCDD77781BBEF10F0040166
:10046000AE511F0804E2800EAD27200EAE5FAEC471
:1004700075F0AD390001766F0F0E76170401AD519E
:100480000F0BFF0A100FB06FAF2D35D0B26B75C0D8
:10049000B1F4B46B200EB36F000190DF0150010F77
:1004A0000401B16F000E0220B26F036A000176C032
:1004B00002F0D8900236033602500401B1270350EF
:1004C000B223770EB125016E000EB221036E01C07A
:1004D000E9FFEA6E036A010E026EB051006E05E09C
:1004E000D89002360336002EFBD70250EF1203508D
:1004F000EC10EF6E39D0B26B75C0B1F4B46B200E56
:10050000B36F00015BDF0150010F0401B16F000EFA
:100510000220B26F036A000176C002F0D890023662
:10052000033602500401B1270350B223770EB125E0
:10053000016E000EB221036E01C0E9FFEA6E036A8C
:10054000010E026EB051006E05E0D89002360336FF
:10055000002EFBD70250FF0A006EFF0E031A005058
:10056000EF160350EC14EF6E000177811200010EBC
:100570000401A66FA76FAC6B9D519F5DAD6FAD5130
:10058000ADAF03D0000ED880AD55036AA46F03C091
:10059000A5F49E51A05DAD6FAD51ADAF03D0000E7F
:1005A000D880AD55036AA26F03C0A3F49D519F5D2F
:1005B00001E2A6699E51A05D01E2A769A351A55D74
:1005C0003AE303E1A251A45D36E3D890A237A33702
:1005D000A451A25D006EA551A35900C0A8F4A96F53
:1005E000A451A85DAA6FA551A959AB6FA55303E10A
:1005F000AC51A45D1FE39DC4ADF49EC4AEF4A1C490
:10060000AFF400012CDF0401A9AF08D0A251A82744
:10061000A351A923A6519D259D6F0AD0AA51A827B1
:10062000AB51A923A6519D259D6FA7519E259E6F75
:10063000AC2BDCD735D0D890A437A537A251A45D18
:10064000006EA351A55900C0A8F4A96FA251A85DDE
:10065000AA6FA351A959AB6FA35303E1AC51A25D9B
:100660001FE39DC4ADF49EC4AEF4A1C4AFF4000179
:10067000F6DE0401A9AF08D0A451A827A551A923EB
:10068000A7519E259E6F0AD0AA51A827AB51A92336
:10069000A6519D259D6FA7519E259E6FAC2BDCD743
:1006A00000011200006A016A04019A51D8909BB1BE
:1006B0000026003201329BB30026003201329BB586
:1006C0000026003201329BB70026003201329BB96E
:1006D0000026003201329BBB0026003201329BBD56
:1006E0000026003201329BBF002600320132000199
:1006F00012000401966B93C497F4010ED8809355B1
:10070000986F945361E09651915D996F975192253E
:100710009A6F965191259B6F975192259C6F99C422
:100720009DF49AC49EF49BC49FF4A06F95C4A1F459
:1007300000011DDF04019651915D996F9751925D03
:100740009A6F965191259B6F9751925D9C6F99C4BA
:100750009DF49AC49EF49BC49FF4A06F95C4A1F429
:10076000000105DF04019751915D996F9651922523
:100770009A6F975191259B6F965192259C6F99C4C2
:100780009DF49AC49EF49BC49FF4A06F95C4A1F4F9
:100790000001EDDE04019751915D996F9651925DD4
:1007A0009A6F975191259B6F9651925D9C6F99C45A
:1007B0009DF49AC49EF49BC49FF4A06F95C4A1F4C9
:1007C0000001D5DE70D0040191519625996F9251A8
:1007D00097259A6F99C4ADF4AE6F95C4AFF400013C
:1007E0003EDE040191519725996F925196259A6F9B
:1007F00099C4ADF4AE6F95C4AFF4000130DE0401CE
:100800009651915D996F925197259A6F99C4ADF465
:10081000AE6F95C4AFF4000122DE04019751915DE3
:10082000996F925196259A6F99C4ADF4AE6F95C4A5
:10083000AFF4000114DE040191519725996F965190
:10084000925D9A6F99C4ADF4AE6F95C4AFF4000198
:1008500006DE040191519625996F9751925D9A6F2A
:1008600099C4ADF4AE6F95C4AFF40001F8DD040196
:100870009651915D996F9751925D9A6F99C4ADF4BD
:10088000AE6F95C4AFF40001EADD04019751915DAC
:10089000996F9651925D9A6F99C4ADF4AE6F95C4FD
:1008A000AFF40001DCDD040198AF0ED09651962B19
:1008B000996F020E9A6F99C49BF40001F3DE015008
:1008C000030F0401982711D09651962B996F9751D9
:1008D0009707995D996F020E9A6F99C49BF4000176
:1008E000E1DE0150050F040198279651800A006E41
:1008F0009751800A005CD8B404D7D8A002D7000171
:10090000C8EF10F074899BC49CF41ADD120077A123
:100910006BD0756B75511F0866E375518009040132
:10092000916F996F000119DD800E0401996F00012C
:1009300014DD766B76510F0854E30401B26B75C079
:10094000B1F4B46B200EB36F000138DD0150010F1C
:100950000401916F000E0220926F036A000176C0BD
:1009600002F0D8900236033602500401912703505A
:100970009223010E9125016E000E9221036E01500B
:10098000770FE96E000E0320EA6EEFCF9BF40001B3
:10099000B9DF0401B26B75C0B1F4B46B200EB36F54
:1009A00000010CDD0150010F0401916F000E0220C7
:1009B000926F036A000176C002F0D89002360336C7
:1009C00002500401912703509223770E9125E96E7E
:1009D000000E9221EA6EEFCF9BF4000193DF762B9D
:1009E000A9D7752B97D77791CAEF10F0738596C466
:1009F0009AF444DC210E006E002EFED7120009008E
:100A0000F5520CE0F6CF91F4F7CF92F4F5CF96F4CF
:100A1000EDDF91C4F6FF92C4F7FFF1D7EEEF10F0CF
:100A2000040191519219800B946F91AF02D0911FE4
:100A3000912B92AF02D0921F922B9251016A915D3D
:100A400003E291C400F00CD0006A080E936F913756
:100A500000369251005CD8B0006E0136932FF7D764
:100A600094AF02D0011E012A0001120078C491F453
:100A70000A0E0401926F0001D3DF036A005057ECA5
:100A800000F0266E78C491F40A0E0401926F000102
:100A9000C7DF036A015057EC00F0276E7AC491F467
:100AA0000A0E0401926F0001BBDF036A005057EC8D
:100AB00000F0296E7AC491F40A0E0401926F0001CD
:100AC000AFDF036A015057EC00F02A6E7BC491F44B
:100AD0000A0E0401926F0001A3DF036A005057EC75
:100AE00000F02C6E7BC491F40A0E0401926F000199
:100AF00097DF036A015057EC00F02D6E04017F2D43
:100B000002D0269E09D07F51020802E1299E04D01E
:100B10007F51030801E12C9E00011200956A8C6A46
:100B20001ABC02D08C9C01D08C8C959C1AB802D037
:100B30008C9801D08C8895981AB402D08C9401D0EE
:100B40008C84959495908C801200036A04019851CE
:100B5000000168EC00F0016E04019A6F9A1F9AC4BC
:100B6000A7F40001F1EC00F0040199C49AF49A1F73
:100B70009AC4A7F40001F1EC00F01A98CFDF959A1F
:100B80008C8A959A8C9A95908C90FAEF05F00401D6
:100B900097C499F4991F99C4A7F40001F1EC00F0EF
:100BA000040198C499F4991F99C4A7F40001F1ECC9
:100BB00000F01A98B3DF959A8C8A959A8C9A959042
:100BC0008C90E8EF05F00401976998690001DFD780
:100BD00000EF06F02E6A2E50070814E3036A2E5029
:100BE000260FE96E000E0320EA6EEFCF99F42EC0B7
:100BF00098F4ABD7A60E006E002EFED70000E3D708
:100C00002E2AE9D71200016A026A006A036A040107
:100C1000985102E1975118E0100E996FD8909537CE
:100C20009637003603369851035C02E19751005C19
:100C300007E39751005ED8A003069851035ED88061
:100C400001360236992FEAD70001120096C4A7F4A4
:100C5000F1EC00F095C4A7F4F1EC00F094C4A7F413
:100C6000F1EC00F093C4A7F4F1EC00F0199C08EC4F
:100C700001F0959E8C9E959E8C8E95928C92D9EFCC
:100C800006F092C496F491C495F40401986B0A0E90
:100C9000976F0001B8DF00C093F4040103C094F41F
:100CA00003C003F00050000157EC00F01E6E92C428
:100CB00096F491C495F40401986B0A0E976F0001A5
:100CC000A2DF02C094F401C093F402C096F401C004
:100CD00095F40401986B0A0E976F000194DF00C031
:100CE00093F4040103C094F403C003F00050000126
:100CF00057EC00F01F6E92C496F491C495F4040171
:100D0000986B640E976F00017EDF02C094F401C0FF
:100D100093F402C096F401C095F40401986B0A0E96
:100D2000976F000170DF00C093F4040103C094F4D6
:100D300003C003F00050000157EC00F0206E92C495
:100D400096F491C495F4030E0401986FE80E976F22
:100D5000000159DF02C094F401C093F402C096F47C
:100D600001C095F40401986B0A0E976F00014BDFE8
:100D700000C093F4040103C094F403C003F00050D6
:100D8000000157EC00F0216E2150C00809E12168F4
:100D90002050C00805E120681F50C00801E11F680D
:100DA00021C093F420C094F41FC095F41EC096F4A3
:100DB0004DD71DEF11F004019951016A985D03E2CE
:100DC00098C400F00CD0006A080E9A6F983700366D
:100DD0009951005CD8B0006E01369A2FF7D7000108
:100DE0001200036A040196510001C5EC00F00401F1
:100DF0009725986F996F00014BEC01F0120092C497
:100E000096F493C497F4EDDF0401946B94510508B4
:100E100028E39451030809E1010E9225956F966F1E
:100E200093C497F40001DDDF040191C49AF4060E27
:100E30009B6F000137DC01500401966B956F036ACC
:100E400094519525016E965103220150000174ECD6
:100E500000F00401956F966F0001C8DD0401942B2A
:100E6000D5D7000112008BC498F40A0E0401996FC3
:100E70000001A1DF01C089F404018BC498F40A0EBB
:100E8000996F000198DF00C08AF4040189C491F4CD
:100E9000010E926F936B0001B2DF8AC491F4010ED0
:100EA0000401926F030E936F0001A9DF1FEF11F091
:100EB000A3C4A7F4F1EC00F0A4C4A7F4F1EC00F093
:100EC000A5C4A7F4F1EC00F0A6C4A7F4F1EC00F07F
:100ED000199808EC01F0959A8C8A959A8C9A9592BB
:100EE0008C9284EF07F09CC49FF49BC4A0F49EC432
:100EF000A1F49DC4A2F49FC4A3F4A0C4A4F4A1C40B
:100F0000A5F4A2C4A6F4D4D7120095C497F496C44D
:100F100098F494C49AF493C499F498C49CF497C434
:100F20009BF49AC49EF499C49DF4DDDF1200311E37
:100F3000321E331E341E34C096F433C095F432C0D2
:100F400094F431C093F4E1DF1200562A346A336A14
:100F5000326A316A386A376A366A010E356E800E37
:100F60003C6E3B6A3A6A396A406A3F6A3E6A3D6A49
:100F7000446E436A466A010E456E486A476A800EAF
:100F80004C6E4B6A4E6A010E4D6E506A4F6A4A6A49
:100F9000496A4AC042F049C041F0200E546E556A79
:100FA000100E576E586A536A5C6A5B6A5A6A010E81
:100FB000596E606B5F6A5E6A5D6E646963696269DF
:100FC000FE0E616F010E716F726F800E686F676B3E
:100FD000666B656B6C6F6B6B6A6B696B7F0E706FAA
:100FE0006F696E696D69526A516A12000401955306
:100FF00006E095C496F4000154EC01F00401532A74
:1010000000011EEF08F00401966B9551965D05E214
:101010000001E0DD0401962BF8D7532A00011EEFF2
:1010200008F00401945306E193C495F40001DED75F
:10103000000104D093C495F40001E5D71200512CAF
:101040000CD052520AE134C096F433C095F432C049
:1010500094F431C093F459DF1BD05150320804E1AD
:10106000525202E164DF14D05150640804E152523C
:1010700002E15DDF0DD05150960804E1525202E1C9
:1010800056DF06D05150C80803E1525201E15DDF3E
:10109000512AD8B4522A91C493F492C494F4C1DF73
:1010A000120053500F0824E34AC09CF449C09BF43B
:1010B00042C09EF441C09DF416DFD890493404012B
:1010C000936F4A34946F010E9325496E000E94215C
:1010D0004A6ED8904230946F4130416E800E942514
:1010E000426E91C493F492C494F400019ADF19D033
:1010F00053501F0815E34AC09CF449C09BF442C0FA
:101100009EF441C09DF4EFDED89049364A36D8901F
:101110004232413291C493F492C494F482DF01D0FC
:1011200014DF120054BE3DD0545000083AE255502E
:10113000800A006E5450800A005C20E23D50351059
:10114000316E3E503610326E3F503710336E405085
:101150003810346E34C096F433C095F432C094F431
:1011600031C093F4D2DE91C493F492C494F459DF65
:10117000D8903536363637363836552A5450555C81
:101180000FE15406556A34C040F033C03FF032C01E
:101190003EF031C03DF0386A376A366A010E356E6E
:1011A00001D0D3DE120053501F0826E334C096F45A
:1011B00033C095F432C094F431C093F4A6DED890D5
:1011C00031340401946F3234956F3334966F343474
:1011D000976F010E9425316E000E9521326E000E30
:1011E0009621336E000E9721346E91C493F492C40D
:1011F00094F4000116DF18D053503F0814E334C0B4
:1012000096F433C095F432C094F431C093F47DDE8B
:10121000D890313632363336343691C493F492C492
:1012200094F4FFDE01D091DE120053500F0819E351
:101230004AC09CF449C09BF44AC09EF449C09DF446
:1012400052DED8904A300401946F4930496E800EC6
:1012500094254A6E91C493F492C494F40001E1DEA3
:1012600016D053501F0812E34AC09CF449C09BF4A7
:101270004AC09EF449C09DF436DED8904A324932C5
:1012800091C493F492C494F4CCDE01D05EDE1200DB
:1012900053501F0821E334C096F433C095F432C094
:1012A00094F431C093F431DED89034300401976F58
:1012B0003330966F3230956F3130316E95C432F0E5
:1012C00096C433F0800E9725346E91C493F492C483
:1012D00094F40001A6DE18D053503F0814E334C044
:1012E00096F433C095F432C094F431C093F40DDE1B
:1012F000D890343233323232313291C493F492C4C2
:1013000094F48FDE01D021DEC3EF11F08E0E006E5B
:101310000401C851005EC9C402F0CAC401F0028EC3
:10132000005209E0D890025202E1015204E0023278
:101330000132002EF7D7C9AF05D0011E021E012AC7
:10134000D8B4022A000112008E0E006ECDC401F046
:10135000CCC402F0036A015209E102C001F0026A42
:10136000080E005E015202E1006A08D0D89001BE6A
:1013700004D0023601360006F9D7019E120004019E
:10138000CC51D8B471D0006ED051D8B46DD00026F5
:1013900004E3810E002668E204D07F0E005E64E361
:1013A00063E0CDC4D4F4D151D41BCD8FD18FCF51B4
:1013B000D303F4CFD6F4CE51D203F4CF03F0F3CF5E
:1013C000D5F4D303F350D627F450D523000E0322CF
:1013D000CF51D203F350D627F450D523000E026A22
:1013E00003220222CD51D303F350D527F450032218
:1013F000000E0222CD51D203F3500326F4500222F4
:10140000000E016A0122CF51D103F350D527F450C9
:101410000322000E02220122CE51D103F3500326F3
:10142000F4500222000E0122CD51D103F3500226C6
:10143000F4500122002A01BE05D0D537033602360A
:1014400001360006000ED5AF0AD0032A022201227F
:10145000015005E1025003E1035001E1002AD4BF2D
:10146000018ED4AF019E04D0006A016A026A036A49
:1014700000011200800ED8A202D00401D11B040189
:10148000D66BD76BCDC4D5F4D151D51BCC51D8B4C4
:10149000DFD0D46F006ED051D8B4E3D0D45FD8B4CD
:1014A00083D03EE3D1C4DAF4DA8FD2C4D9F4D3C402
:1014B000D8F4D76BD890DA33D933D833D733D42F85
:1014C000F8D7D5AF03D0D681E0D0D691D491D689C4
:1014D000040EEA6ECF0EE96EEBD0D699D5BF0AD0D6
:1014E000D4A113D0DA33D933D833D733002AD8B4C0
:1014F000C7D00BD0DABF0CD0D890D737D837D93770
:10150000DA370006D8B4BCD0F5D7D68D6DD0D69DCD
:10151000CDC4D5F4CDAF02D0DA8FABD0DA9FA9D04D
:10152000D0C4D4F4D0C400F0CC51D45FCDC4DAF42C
:10153000DA8FCEC4D9F4CFC4D8F4D76BD890DA33CD
:10154000D933D833D733D42FF8D7D5AF03D0D683F8
:101550009CD0D693D491D68B040EEA6ED30EE96E4E
:10156000A7D0D69BD5BF0AD0D4A113D0DA33D933B4
:10157000D833D733002AD8B483D00BD0DABF0CD0FD
:10158000D890D737D837D937DA370006D8B478D0DB
:10159000F5D7D68F29D0D69FD1C4D5F4D1AF02D0FC
:1015A000DA8F67D0DA9F65D0D1C4DAF4DA8FD2C48B
:1015B000D9F4D3C4D8F4D5AF04D0DA9FD68565D09A
:1015C000D695D76BD491040EEA6ECF0EE96E70D02B
:1015D000D5BF1CD0CDC4D5F4D4A106D0DA33D933CD
:1015E000D833D733002A4CE0D7AF0BD0D82B09E142
:1015F000D92B07E1DA2B05E1DA33D933D833002AC6
:101600003FE0D6BD84D7D6BFC6D71CD0800EDA1B2C
:10161000DAAF04D03AD0D1C4D5F40AD0CDC4D5F4D1
:10162000DA5306E1D95304E1D85302E1006A21D02C
:10163000DABF08D0D890D737D837D937DA37002E65
:10164000F7D71ED0D5AF02D0DA8F13D0DA9F11D0E2
:10165000D0C400F0D1C4DAF4D2C4D9F4D3C4D8F4DD
:1016600008D0CCC400F0CDC4DAF4CEC4D9F4CFC4D1
:10167000D8F4DAC401F0D9C402F0D8C403F034D0ED
:10168000006A016A026A036A2FD0D76BD81FD91F7C
:10169000DA1FD71FD72B05E1D82B03E1D92B01E1A6
:1016A000DA2BD6B112D7D6B354D7D6B589D7B3D79C
:1016B000EF50D82705E3D92B03E1DA2BD8B4D48136
:1016C000ED52EF50D92703E3DA2BD8B4D481ED5291
:1016D000EF50EFBE01D0800ADA27D8B0D481D6B956
:1016E000FCD6D6BB3ED774D700011200C9C4D0F4D3
:1016F0000401CD51D01BD0AF05D0D894D890C9BF2C
:10170000D8802FD0C9C4D0F4CCC4D1F4C851D15F93
:1017100006E0D0AF26D0D850010AD86E22D0CDC472
:10172000D1F4C951D15F06E0D0AF1BD0D850010A27
:10173000D86E17D0CEC4D1F4CA51D15F06E0D0AF75
:1017400010D0D850010AD86E0CD0CFC4D1F4CB51F0
:10175000D15F06E0D0AF05D0D850010AD86E01D0D5
:10176000D8900001EEEF0BF00401AD6BAC6BAB6BEE
:101770007F0EAA6F7E0EB46F800EB56FB66BB76B1F
:101780007A0EB86F2A0EB96FAA0EBA6FA30EBB6F8E
:10179000750EBC6FB60EBD6F090EBE6FB40EBF6F77
:1017A0006F0EC06F4F0EC16FB60EC26FAA0EC36F21
:1017B000690EC46F8B0EC56FF60EC66FE80EC76F4D
:1017C000A1C4CBF4A0C4CAF49FC4C9F49EC4C8F495
:1017D000CF6BCE6BCD6BCC6B000188D705E30401DA
:1017E0009F51800A9F6F0001A1C4CFF4A0C4CEF422
:1017F0009FC4CDF49EC4CCF4830E0401D36FF90EC4
:10180000D26F220ED16F7E0ED06F0001B8DD03C003
:10181000CBF402C0CAF401C0C9F400C0C8F476DD3C
:1018200001C0AEF4A1C4CFF4A0C4CEF49FC4CDF4E3
:101830009EC4CCF4830E0401D36FF90ED26F220E36
:10184000D16F7E0ED06F00019ADD03C0CBF402C0D1
:10185000CAF401C0C9F400C0C8F40401CD6BAEC421
:10186000CCF4000171DDD882CBC4CFF4CAC4CEF46D
:10187000C9C4CDF4C8C4CCF403C0D3F402C0D2F4BC
:1018800001C0D1F400C0D0F4F5DD03C0B3F402C050
:10189000B2F401C0B1F400C0B0F4030E0401AE17FD
:1018A000AE5303E0AE5102081CE1B3C4CFF4B2C49E
:1018B000CEF4B1C4CDF4B0C4CCF4DB0ED36F0F0EB4
:1018C000D26F490ED16F7F0ED06F000158DD03C07B
:1018D000A9F402C0A8F401C0A7F400C0A6F46BD01C
:1018E0000401AE2D35D0D882CF6BCE6BCD6B7F0E81
:1018F000CC6FB3C4D3F4B2C4D2F4B1C4D1F4B0C485
:10190000D0F40001B7DD03C0CBF402C0CAF401C0BB
:10191000C9F400C0C8F403C0CFF402C0CEF401C0C3
:10192000CDF400C0CCF4DB0E0401D36F0F0ED26FE8
:10193000490ED16F7F0ED06F000121DD03C0A9F4E5
:1019400002C0A8F401C0A7F400C0A6F434D004017A
:10195000D882B3C4CFF4B2C4CEF4B1C4CDF4B0C411
:10196000CCF4D36BD26BD16B7F0ED06F000182DDD4
:1019700003C0CBF402C0CAF401C0C9F400C0C8F46B
:1019800003C0CFF402C0CEF401C0CDF400C0CCF44B
:10199000DB0E0401D36F0F0ED26F490ED16F7F0E95
:1019A000D06F0001ECDC03C0A9F402C0A8F401C0B0
:1019B000A7F400C0A6F40401A56BA46BA36B7F0E73
:1019C000A26FA9C4CFF4A8C4CEF4A7C4CDF4A6C412
:1019D000CCF4A9C4D3F4A8C4D2F4A7C4D1F4A6C447
:1019E000D0F40001CCDC03C0A9F402C0A8F401C00B
:1019F000A7F400C0A6F40401AF6BAF5104085BE389
:101A0000ADC4CFF4ACC4CEF4ABC4CDF4AAC4CCF412
:101A1000A9C4D3F4A8C4D2F4A7C4D1F4A6C4D0F402
:101A20000001ADDC03C0ADF402C0ACF401C0ABF406
:101A300000C0AAF40401AF51040DF350036AB40FBF
:101A4000E96E040E0320EA6EEFCFCCF4ECCFCDF4B8
:101A5000ECCFCEF4ECCFCFF4ADC4D3F4ACC4D2F41D
:101A6000ABC4D1F4AAC4D0F4000189DCEACFC9F434
:101A7000E9CFC8F4D892A5C4CFF4A4C4CEF4A3C4CB
:101A8000CDF4A2C4CCF403C0D3F402C0D2F401C09C
:101A9000D1F400C0D0F4EEDCC9C4EAFFC8C4E9FF49
:101AA00003C0A5F402C0A4F401C0A3F400C0A2F4D2
:101AB0000401AF2BA2D7AE51020802E0AE2D03D035
:101AC000A351800AA36FA2C400F0A3C401F0A4C470
:101AD00002F0A5C403F000011200D88299C4CFF42B
:101AE00098C4CEF497C4CDF496C4CCF4DB0E0401B4
:101AF000D36F0F0ED26F490ED16F7F0ED06F0001E2
:101B0000B9DC03C09DF402C09CF401C09BF400C08A
:101B10009AF403C0A1F402C0A0F401C09FF400C075
:101B20009EF422DE98EF0FF077A1B1D00401923934
:101B3000986F0F0E981794519225006E003A0F0E71
:101B400000160050985D0AE00F0E9425006E003AD2
:101B50000F0E00160050010F946F07D00F0E942542
:101B6000006E0038946F0F0E9417923B0F0E921771
:101B700093C475F0955193250001755DD8B086D05A
:101B800075511F080BE2080E04019225966F200E76
:101B90000001755D0401976F06D0000192C496F4B0
:101BA00075C097F4040197518009986F996F0001EF
:101BB000ADEC01F0040196518009986F996F000116
:101BC000ADEC01F096C476F0040194519625000125
:101BD000765D58E20401B26B97C4B1F4B46B200E89
:101BE000B36F0001DEEC01F00150010F0401986FAA
:101BF000000E0220996F036A000176C002F0D890AF
:101C00000236033602500401982703509923010E2F
:101C10009825016E000E9921036E0150770FE96E31
:101C2000000E0320EA6EEFCF9BF4000182EC04F07B
:101C30000401B26B97C4B1F4B46B200EB36F000112
:101C4000DEEC01F00150010F0401986F000E02203C
:101C5000996F036A000176C002F0D890023603360D
:101C600002500401982703509923770E9825E96EB6
:101C7000000E9921EA6EEFCF9BF4000182EC04F094
:101C8000762BA2D7752B040175D700017791FCEF55
:101C90000FF0200E040193A9300E946F92C400F04F
:101CA00000AE08D0001E002A00C092F42D0E946FE2
:101CB000938F9381015092C498F4640E996F000140
:101CC000DBEC06F000C092F4300E01240401956FA5
:101CD00092C498F40A0E996F0001DBEC06F0300E06
:101CE00000240401976F300E0124966F94C400F015
:101CF000300E955D04E0938393BF938512D094C416
:101D000095F4200E946F300E965D04E0938193BF9E
:101D1000938307D0D8A4938104E195C496F4200E50
:101D2000956F93B505D093B308D093B10BD00FD076
:101D300094C49BF4000182EC04F095C49BF4000170
:101D400082EC04F096C49BF4000182EC04F097C48A
:101D50009BF4000182EC04F0120083C4CBF482C433
:101D6000CAF481C4C9F480C4C8F486EC09F001C087
:101D700092F487C4CBF486C4CAF485C4C9F484C47D
:101D8000C8F486EC09F001C093F4400E04019D6F85
:101D9000200E9E6F92C49FF401C0A0F4A16B0001BD
:101DA000B7EC02F00401CD6B91C4CCF40001A4ECBB
:101DB00009F003C0CFF402C0CEF401C0CDF400C0DE
:101DC000CCF4F40E0401D36FFD0ED26F540ED16F1C
:101DD0007B0ED06F0001BFEC09F003C095F402C088
:101DE00094F401C093F400C092F4D88203C0CFF4FD
:101DF00002C0CEF401C0CDF400C0CCF4C30E040187
:101E0000D36FF50ED26F480ED16F7F0ED06F0001E9
:101E10003AEC0AF003C095F402C094F401C093F4C4
:101E200000C092F403C0A1F402C0A0F401C09FF46A
:101E300000C09EF499DC0401CF6BCE6B780ECD6FA1
:101E4000830ECC6F03C0D3F402C0D2F401C0D1F42E
:101E500000C0D0F40001BFEC09F0EACF93F4E9CF61
:101E600092F4D8920401CF6BCE6BCD6B850ECC6F04
:101E700003C0D3F402C0D2F401C0D1F400C0D0F446
:101E800000013AEC0AF093C4EAFF92C4E9FF03C0F0
:101E900083F402C082F401C081F400C080F4040124
:101EA000CD6B91C4CCF40001A4EC09F003C0CFF4D5
:101EB00002C0CEF401C0CDF400C0CCF4F40E040195
:101EC000D36FFD0ED26F540ED16F7B0ED06F000119
:101ED000BFEC09F003C095F402C094F401C093F480
:101EE00000C092F4D88203C0CFF402C0CEF401C087
:101EF000CDF400C0CCF4C30E0401D36FF50ED26F45
:101F0000480ED16F7F0ED06F00013AEC0AF003C08B
:101F100095F402C094F401C093F400C092F403C09D
:101F200099F402C098F401C097F400C096F4D5D596
:101F30000401CF6BCE6B780ECD6F830ECC6F03C0D8
:101F4000D3F402C0D2F401C0D1F400C0D0F4000137
:101F5000BFEC09F0EACF93F4E9CF92F4D8920401F0
:101F6000CF6BCE6B780ECD6F830ECC6F03C0D3F4E6
:101F700002C0D2F401C0D1F400C0D0F400013AECA8
:101F80000AF093C4EAFF92C4E9FF03C087F402C0D9
:101F900086F401C085F400C084F483C4CBF482C409
:101FA000CAF481C4C9F480C4C8F486EC09F001C045
:101FB00092F487C4CBF486C4CAF485C4C9F484C43B
:101FC000C8F486EC09F001C093F4400E04019D6F43
:101FD000200E9E6F92C49FF401C0A0F4010EA16F69
:101FE0000001B7EC02F0200E0401926F936B400EDB
:101FF000946F956F000198D5300E0401926F000127
:10200000B2EC01F0800E0401996F0001ADEC01F01B
:102010007BC492F4180E0401936F00013ADE900E17
:102020000401996F0001ADEC01F07AC492F4180E2E
:102030000401936F00012DDE880E0401996F0001E9
:10204000ADEC01F078C492F4180E0401936F000116
:1020500020DE360E0401926F0001B2EC01F0E3EFD6
:1020600011F0F86AD09E078E93829380310EC86E6D
:10207000280EC66EC78EC79C1B6A226A236A246A12
:10208000256A2E6A2F6A306A346A336A326A316A84
:10209000386A376A366A010E356E800E3C6E3B6ACE
:1020A0003A6A396A406A3F6A3E6A3D6A446E436AE8
:1020B000466A010E456E486A476A800E4C6E4B6A4E
:1020C0004E6A010E4D6E506A4F6A526A516A536AE7
:1020D000200E546E556A010E566E100E576E586AD9
:1020E0005C6A5B6A5A6A010E596E606B5F6A5E6A6F
:1020F0005D6E646963696269FE0E616F800E686F70
:10210000676B666B656B6C6F6B6B6A6B696B7F0E75
:10211000706F6F696E696D69010E716F726F040186
:102120007C6B7D6B7E6B7F6B780E886F8B6B8C6BA3
:102130008D6B8F6B8E6BC150C00B0F09C16E070E7C
:10214000B46E26682768286829682A682B682C6876
:102150002D680001E2EF00F03C0E936E68EF01F095
:10216000360E0401926F0001B2EC01F00401916B94
:102170000001EFEF01F0400E0401916F200E926F0D
:102180001F0E936F946B010E956F000179EF03F0B2
:1021900087EF04F0400E0401996F00014BEC01F051
:1021A0000401906B90513F080EE3036A90510001C7
:1021B0009DEC00F00401916F966F0001F6EC04F0C5
:1021C0000401902BEFD7800E996F00014BEC01F0CA
:1021D000B20EF66E010EF76EFFEF04F0A80ED56E8C
:1021E000D76AD66AB50ECD6E0B0ECF6EDC0ECE6EF4
:1021F000C00EF2129D800401786B796B1D0E7A6F10
:102200000F0E7B6F000136EC05F0040179BF04D09E
:1022100079510908D8A0CBD00001EAEC05F0D650DE
:1022200004018B6F8C518B5D16E08BC48CF4926B28
:102230008BC491F4000141EF06F033EF07F0010E7B
:1022400004018825006EE8BE03D000508B5D03E3D7
:10225000D76A010ED66E562C08D0050E916F010E6E
:10226000926F00011FEC08F004015650020808E1CB
:10227000050E916F010E926F000151EC08F0040100
:102280005650030808E1050E916F010E926F000190
:1022900092EC08F004015650040808E1050E916F15
:1022A000010E926F0001D3EC08F0040156500508AE
:1022B00008E1050E916F010E926F000115EC09F017
:1022C00004015650060808E1050E916F010E926F49
:1022D000000192EC08F004015650070808E1050ED1
:1022E000916F010E926F000192EC08F004015650BC
:1022F000080808E1050E916F010E926F00011FECB6
:1023000008F004015650090808E1050E916F010E0E
:10231000926F000151EC08F0040156500A0808E1E0
:10232000050E916F010E926F000192EC08F004010E
:1023300056500B0808E1050E916F010E926F0001D7
:10234000D3EC08F0040156500C0808E1050E916F1B
:10235000010E926F000115EC09F0040156500D08B2
:1023600008E1050E916F010E926F0001D3EC08F0A9
:10237000040156500E0808E1050E916F010E926F90
:10238000000148EF09F0040156500F0808E1050E5E
:10239000916F010E926F000192EC08F0040156BE9D
:1023A00005D056500F0802E2010E566E1FD00A0EDD
:1023B000795F7C2B7C51140801E17F6B782B78C40A
:1023C00091F40001CAD4040178513C080BE1786B08
:1023D0007A2B7A513C0806E17A6B7B2B7B511808EB
:1023E00001E17B6B000136EC05F004010FD703001F
:020000040030CA
:0E00000027CC3E1E0087A1000FC00FE00F406E
:00000001FF
;PIC18F4550
;CRC=F2B4  CREATED="07-Dec-20 14:16"
