:040000000CEF05F00C
:08000800046ED8CF05F0E0CF33
:1000100006F00001E9CF0CF0EACF07F0E1CF08F0DD
:10002000E2CF09F0D9CF0AF0DACF0BF0F3CF12F01C
:10003000F4CF13F0FACF14F0F5CF15F0F6CF16F099
:10004000F7CF17F000C00EF001C00FF002C010F0A3
:1000500003C011F09DA030EF00F09EB074EF00F0EF
:100060000EC000F00FC001F010C002F011C003F08C
:100070000CC0E9FF07C0EAFF078E08C0E1FF09C016
:10008000E2FF0AC0D9FF0BC0DAFF12C0F3FF13C0B2
:10009000F4FF14C0FAFF15C0F5FF16C0F6FF17C035
:1000A000F7FF045006C0E0FF05C0D8FF1000F76A54
:1000B000BE0FF66E000EF7220900F5501200C0F9CF
:1000C000A4B0999282F880908883C6A1868E7F0022
:1000D000F76AE00FF66E000EF7220900F5501200E5
:1000E0007FBFDFEFF7FBFDFE742B0B0ECF6EDC0E38
:1000F000CE6E9E9030EF00F0000E956E966E956A73
:100100008C6819681A6895928C9295908C901D6AEB
:100110001C6A80EF05F07D517E19800B806F7DAFEA
:1001200002D07D1F7D2B7EAF02D07E1F7E2B7E51A5
:10013000016A7D5D03E27DC000F00CD0006A080E0C
:100140007F6F7D3700367E51005CD8B0006E01367F
:100150007F2FF7D780AF02D0011E012A120073C093
:100160007DF00A0E7E6FD7DF036A0050A0DF266E97
:1001700073C07DF00A0E7E6FCEDF036A015097DFF9
:10018000276E75C07DF00A0E7E6FC5DF036A0050D2
:100190008EDF296E75C07DF00A0E7E6FBCDF036AAC
:1001A000015085DF2A6E76C07DF00A0E7E6FB3DFC8
:1001B000036A00507CDF2C6E76C07DF00A0E7E6FE5
:1001C000AADF036A015073DF2D6E782D02D0269EC0
:1001D00009D07851020802E1299E04D07851030821
:1001E00001E12C9E1200782D01D007D07851020831
:1001F00001E103D07851030800E1B0EF05F093C0AE
:1002000095F0946B945107080EE395BF02D08D943E
:1002100001D08D84969496908D9096908D80D890F4
:100220009537942BEFD71200956A8C6A1ABC02D0CE
:100230008C9C01D08C8C959C1AB802D08C9801D0E3
:100240008C8895981AB402D08C9401D08C849594A3
:1002500095908C801200036A84513ADF016E866F9C
:10026000861F86C093F0CBDF85C086F0861F86C0D0
:1002700093F0C5DF1A98D8DF959A8C8A959A8C9A54
:1002800095908C906FEF01F08351856F851F85C02D
:1002900093F0B5DF84C085F0851F85C093F0AFDF94
:1002A0001A98C2DF959A8C8A959A8C9A95908C9020
:1002B0005DEF01F083698469E7D775EF01F02E6A7D
:1002C0002E50070814E3036A2E50260FE96E000E25
:1002D0000320EA6EEFCF85F02EC084F0BCD7A60EC7
:1002E000006E002EFED70000E5D72E2AE9D71200B7
:1002F000938A81BA0FD01B2A7E5308E17D511B5C83
:1003000005E31B6A010E016E07D003D0000E016EDB
:1003100003D002D0000E016E92EF01F07E6B050E4D
:100320007D6FE6D701521FE0776B7851010A05E037
:10033000030A0AE0010A0FE015D073513B0802E1FD
:10034000736B01D0732B0ED075513B0802E1756BB6
:1003500001D0752B07D07651170802E1766B01D0DA
:10036000762B00D0FCDEB4EF05F0938881B80FD077
:100370001B2A7E5308E17D511B5C05E31B6A010EBD
:10038000016E07D003D0000E016E03D002D0000E24
:10039000016ECFEF01F07E6B050E7D6FE6D7015247
:1003A0001EE07851010A05E0030A0AE0010A0FE0A5
:1003B00015D0735303E13B0E736F01D073070ED05A
:1003C000755303E13B0E756F01D0750707D0765367
:1003D00003E1170E766F01D0760700D0C0DEB5EFCF
:1003E00005F0938681B60FD01B2A7E5308E17D511C
:1003F0001B5C05E31B6A010E016E07D003D0000EE3
:10040000016E03D002D0000E016E0BEF02F07E6B86
:10041000050E7D6FE6D7015207E0782B785103086F
:1004200001E2786B776B9BDEB6EF05F0016A026A3A
:10043000006A036A845102E1835118E0100E856F4F
:10044000D89081378237003603368451035C02E14D
:100450008351005C07E38351005ED8A003068451FA
:10046000035ED88001360236852FEAD71200956ADE
:100470008C6A19B802D08C9801D08C88959819BCD8
:1004800002D08C9C01D08C8C959C19B402D08C9499
:1004900001D08C84959495928C82120082C093F046
:1004A000AEDE81C093F0ABDE80C093F0A8DE7FC0EB
:1004B00093F0A5DE199CDBDF959E8C9E959E8C8E1D
:1004C00095928C92E2EF02F07EC082F07DC081F0C6
:1004D000846B0A0E836FAADF00C07FF003C080F038
:1004E00003C003F00050E3DD1E6E7EC082F07DC0CD
:1004F00081F0846B0A0E836F99DF02C080F001C027
:100500007FF002C082F001C081F0846B0A0E836F1D
:100510008DDF00C07FF003C080F003C003F0005007
:10052000C6DD1F6E7EC082F07DC081F0846B640EDC
:10053000836F7CDF02C080F001C07FF002C082F0D8
:1005400001C081F0846B0A0E836F70DF00C07FF002
:1005500003C080F003C003F00050A9DD206E7EC010
:1005600082F07DC081F0030E846FE80E836F5EDF42
:1005700002C080F001C07FF002C082F001C081F0B3
:10058000846B0A0E836F52DF00C07FF003C080F0DF
:1005900003C003F000508BDD216E2150C00809E13B
:1005A00021682050C00805E120681F50C00801E103
:1005B0001F6821C07FF020C080F01FC081F01EC0E6
:1005C00082F06CD7C9EF05F08FC093F018DE90C0B1
:1005D00093F015DE91C093F012DE92C093F00FDE1F
:1005E000199845DF959A8C8A959A8C9A95928C9257
:1005F0000BEF03F088C08BF087C08CF08AC08DF0C1
:1006000089C08EF08BC08FF08CC090F08DC091F0BF
:100610008EC092F0D9D7120081C083F082C084F0DE
:1006200080C086F07FC085F084C088F083C087F0EA
:1006300086C08AF085C089F0DDDF1200311E321ECF
:10064000331E341E34C082F033C081F032C080F0DB
:1006500031C07FF0E1DF1200562A346A336A326A11
:10066000316A386A376A366A010E356E800E3C6E22
:100670003B6A3A6A396A406A3F6A3E6A3D6A446E3A
:10068000436A466A010E456E486A476A800E4C6EA0
:100690004B6A4E6A010E4D6E506A4F6A4A6A496A49
:1006A0004AC042F049C041F0200E546E556A100E07
:1006B000576E586A536A5C6A5B6A5A6A010E596ED1
:1006C000606B5F6A5E6A5D6E646963696269FE0E93
:1006D000616F010E716F726F800E686F676B666B72
:1006E000656B6C6F6B6B6A6B696B7F0E706F6F699C
:1006F0006E696D69526A516A1200EA6A820EE96E89
:10070000EF500DE0060E016E006A002EFED7012E9E
:10071000FBD77B0E006E002EFED7EF2EF3D796EFA1
:1007200003F0815303E081C082F0E7D7532AACEF96
:1007300003F0826B8151825D03E2C1DD822BFAD727
:10074000532AACEF03F0805304E17FC081F0E9D776
:1007500003D07FC081F0EDD71200512C0CD0525243
:100760000AE134C082F033C081F032C080F031C081
:100770007FF052DF1BD05150320804E1525202E1A7
:100780005DDF14D05150640804E1525202E156DF9B
:100790000DD05150960804E1525202E14FDF06D0CD
:1007A0005150C80803E1525201E156DF512AD8B432
:1007B000522A7DC07FF07EC080F0C5DF120053500A
:1007C0000F0822E34AC088F049C087F042C08AF08F
:1007D00041C089F00FDFD89049347F6F4A34806F71
:1007E000010E7F25496E000E80214A6ED89042305E
:1007F000806F4130416E800E8025426E7DC07FF05B
:100800007EC080F0A0DF19D053501F0815E34AC006
:1008100088F049C087F042C08AF041C089F0EADE22
:10082000D89049364A36D890423241327DC07FF066
:100830007EC080F088DF01D00FDF120054BE3DD0B3
:10084000545000083AE25550800A006E5450800A15
:10085000005C20E23D503510316E3E503610326E55
:100860003F503710336E40503810346E34C082F031
:1008700033C081F032C080F031C07FF0CDDE7DC06A
:100880007FF07EC080F05FDFD89035363636373661
:100890003836552A5450555C0FE15406556A34C019
:1008A00040F033C03FF032C03EF031C03DF0386A16
:1008B000376A366A010E356E01D0CEDE1200535013
:1008C0001F0824E334C082F033C081F032C080F0CE
:1008D00031C07FF0A1DED8903134806F3234816F27
:1008E0003334826F3434836F010E8025316E000EF5
:1008F0008121326E000E8221336E000E8321346E10
:100900007DC07FF07EC080F01EDF18D053503F08BE
:1009100014E334C082F033C081F032C080F031C0C3
:100920007FF07ADED89031363236333634367DC0B9
:100930007FF07EC080F007DF01D08EDE12005350C2
:100940000F0817E34AC088F049C087F04AC08AF010
:1009500049C089F04FDED8904A30806F4930496EE7
:10096000800E80254A6E7DC07FF07EC080F0EBDE79
:1009700016D053501F0812E34AC088F049C087F0D0
:100980004AC08AF049C089F035DED8904A324932EF
:100990007DC07FF07EC080F0D6DE01D05DDE12002B
:1009A00053501F081FE334C082F033C081F032C0BF
:1009B00080F031C07FF030DED8903430836F333038
:1009C000826F3230816F3130316E81C032F082C03F
:1009D00033F0800E8325346E7DC07FF07EC080F0C2
:1009E000B2DE18D053503F0814E334C082F033C055
:1009F00081F032C080F031C07FF00EDED89034320A
:100A00003332323231327DC07FF07EC080F09BDEE7
:100A100001D022DE40EF06F0F86AD09E078E938266
:100A20009380310EC86E280EC66EC78EC79C1B6A97
:100A3000226A236A246A256A2E6A2F6A306A346A17
:100A4000336A326A316A386A376A366A010E356E3D
:100A5000800E3C6E3B6A3A6A396A406A3F6A3E6A77
:100A60003D6A446E436A466A010E456E486A476AAB
:100A7000800E4C6E4B6A4E6A010E4D6E506A4F6A84
:100A8000526A516A536A200E546E556A010E566EB0
:100A9000100E576E586A5C6A5B6A5A6A010E596E8C
:100AA000606B5F6A5E6A5D6E646963696269FE0EAF
:100AB000616F800E686F676B666B656B6C6F6B6BDD
:100AC0006A6B696B7F0E706F6F696E696D69010E7D
:100AD000716F726F776B786B7A6B796B7C6B7B6BFA
:100AE000C150C00B0F09C16E070EB46E266827688F
:100AF000286829682A682B682C682D687CEF00F02C
:100B00003C0E936EA80ED56ED76AD66A850ECD6E52
:100B10000B0ECF6EDC0ECE6EC00EF2129D80736B8C
:100B2000746B756B766BAFEC00F074BF04D07451CE
:100B30006308D8A0B5D0785313E074530CE1938ABE
:100B400081AA09D0938881A806D0938681A603D074
:100B5000F3EF00F005D074515008D8B4AFEC00F0BA
:100B60005FEC01F08EEF01F016D451D4D650796FBE
:100B7000D7CF7AF07B51795D03E17C517A5D11E04A
:100B80007AC07CF079C07BF07AC07EF079C07DF0CD
:100B90009BD47A5303E17951640803E2D76A010ECA
:100BA000D66E562C05D00A0E7D6F010E7E6FD5DDF8
:100BB0005650020805E10A0E7D6F010E7E6FFFDDC3
:100BC0005650030805E10A0E7D6F010E7E6F36DE7A
:100BD0005650040805E10A0E7D6F010E7E6F6FDE30
:100BE0005650050805E10A0E7D6F010E7E6FA7DEE7
:100BF0005650060805E10A0E7D6F010E7E6F1EDE5F
:100C00005650070805E10A0E7D6F010E7E6F16DE55
:100C10005650080805E10A0E7D6F010E7E6F9DDDBE
:100C20005650090805E10A0E7D6F010E7E6FC7DD83
:100C300056500A0805E10A0E7D6F010E7E6FFEDD3B
:100C400056500B0805E10A0E7D6F010E7E6F37DEF0
:100C500056500C0805E10A0E7D6F010E7E6F6FDEA7
:100C600056500D0805E10A0E7D6F010E7E6F27DEDE
:100C700056500E0805E10A0E7D6F010E7E6F90D66C
:100C800056500F0805E10A0E7D6F010E7E6FD6DD0E
:100C900056BE05D056500F0802E2010E566E18D00F
:100CA0000A0E745F772B7751140801E1786B732B70
:100CB00073513C080BE1736B752B75513C0806E1D1
:100CC000756B762B7651180801E1766BAFEC00F06E
:040CD0002CD703001A
:020000040030CA
:0E00000027CC3E1E0087A1000FC00FE00F406E
:00000001FF
;PIC18F4550
;CRC=F030  CREATED="09-Nov-20 13:50"
