:10000000FFEF02F0F76A140FF66E000EF7220900F8
:10001000F5501200C0F9A4B0999282F880908883BC
:10002000C6A1868EF76A340FF66E000EF72209001D
:10003000F55012007FBFDFEFF7FBFDFE000E956E5F
:10004000966E956A8C680468056895928C92959076
:100050008C90086A076A6CEF03F075C077F0766BD6
:10006000765107080EE377BF02D08D9401D08D84BE
:10007000969496908D9096908D80D8907737762B29
:10008000EFD71200956A8C6A04B802D08C9801D020
:100090008C88959804BC02D08C9C01D08C8C959C4B
:1000A00004B402D08C9401D08C84959495928C8267
:1000B000120071C075F0D1DF72C075F0CEDF73C071
:1000C00075F0CBDF74C075F0C8DF0498DBDF959A5C
:1000D0008C8A959A8C9A95928C92120064C075F0D5
:1000E000BCDF63C075F0B9DF62C075F0B6DF61C018
:1000F00075F0B3DF049CC6DF959E8C9E959E8C8E1A
:1001000095928C928AEF00F061696269636960C0C0
:1001100064F0E4D779EF03F06AC06DF069C06EF067
:100120006CC06FF06BC070F06DC071F06EC072F09B
:100130006FC073F070C074F0BCDF120063C065F074
:1001400064C066F062C068F061C067F066C06AF0C3
:1001500065C069F068C06CF067C06BF0DDDF12004D
:100160001C1E1D1E1E1E1F1E1FC064F01EC063F03D
:100170001DC062F01CC061F0E1DF1200412A1F6A5D
:100180001E6A1D6A1C6A236A226A216A010E206E99
:10019000800E276E266A256A246A2B6A2A6A296AD3
:1001A000286A2F6E2E6A316A010E306E336A326A07
:1001B000800E376E366A396A010E386E3B6A3A6ACB
:1001C000356A346A35C02DF034C02CF0200E3F6EF5
:1001D000406A100E426E436A3E6A476A466A456A42
:1001E000010E446E4B6A4A6A496A486E4F684E680F
:1001F0004D68FE0E4C6E010E5C6E5D6E800E536E91
:10020000526A516A506A576E566A556A546A7F0E2E
:100210005B6E5A68596858683D6A3C6A1200EA6A1F
:10022000640EE96EEF500DE0060E016E006A002EBE
:10023000FED7012EFBD77B0E006E002EFED7EF2ED1
:10024000F3D71200635303E063C064F0E8DF3E2A93
:10025000A2EF01F0956A8C6A05BC02D08C9C01D09B
:100260008C8C959C05B802D08C9801D08C88959880
:1002700005B402D08C9401D08C84959495908C8098
:100280001200036A6651CEDE016E686F681F68C097
:1002900075F0E3DE67C068F0681F68C075F0DDDEEA
:1002A0000598D8DF959A8C8A959A8C9A95908C901F
:1002B00085EF01F06551676F671F67C075F0CDDE90
:1002C00066C067F0671F67C075F0C7DE0598C2DFBC
:1002D000959A8C8A959A8C9A95908C9073EF01F0F0
:1002E00065696669E7D78BEF01F0196A195007084D
:1002F00014E3036A1950110FE96E000E0320EA6E31
:10030000EFCF67F019C066F0BCD7A60E006E002EC6
:10031000FED70000E5D7192AE9D794EF01F0646B06
:100320006351645D03E2E1D7642BFAD73E2AA2EF62
:1003300001F0625304E161C063F084D703D061C06F
:1003400063F0EDD712003C2C0CD03D520AE11FC0E7
:1003500064F01EC063F01DC062F01CC061F0EEDEF0
:100360001BD03C50320804E13D5202E1F9DE14D0CA
:100370003C50640804E13D5202E1F2DE0DD03C50F5
:10038000960804E13D5202E1EBDE06D03C50C8087D
:1003900003E13D5201E1F2DE3C2AD8B43D2A5FC0C0
:1003A00061F060C062F0C5DF7FEF03F03E500F08E0
:1003B00022E335C06AF034C069F02DC06CF02CC067
:1003C0006BF0AADED8903434616F3534626F010E61
:1003D0006125346E000E6221356ED8902D30626F2B
:1003E0002C302C6E800E62252D6E5FC061F060C0D7
:1003F00062F09FDF19D03E501F0815E335C06AF048
:1004000034C069F02DC06CF02CC06BF085DED89044
:1004100034363536D8902D322C325FC061F060C052
:1004200062F087DF01D0AADE86EF03F03FBE3DD049
:100430003F5000083AE24050800A006E3F50800A68
:10044000005C20E2285020101C6E295021101D6EE7
:100450002A5022101E6E2B5023101F6E1FC064F0F6
:100460001EC063F01DC062F01CC061F067DE5FC09B
:1004700061F060C062F05DDFD89020362136223610
:100480002336402A3F50405C0FE13F06406A1FC0C0
:100490002BF01EC02AF01DC029F01CC028F0236AD2
:1004A000226A216A010E206E01D068DE12003E50E1
:1004B0001F0824E31FC064F01EC063F01DC062F07B
:1004C0001CC061F03BDED8901C34626F1D34636F3A
:1004D0001E34646F1F34656F010E62251C6E000EA2
:1004E00063211D6E000E64211E6E000E65211F6EBD
:1004F0005FC061F060C062F01CDF18D03E503F0862
:1005000014E31FC064F01EC063F01DC062F01CC085
:1005100061F014DED8901C361D361E361F365FC0C3
:1005200061F060C062F005DF01D028DE94EF03F0D7
:100530003E500F0817E335C06AF034C069F035C08B
:100540006CF034C06BF0E8DDD8903530626F343039
:10055000346E800E6225356E5FC061F060C062F05F
:10056000E8DE16D03E501F0812E335C06AF034C0F2
:1005700069F035C06CF034C06BF0CEDDD890353208
:1005800034325FC061F060C062F0D3DE01D0F6DDCE
:100590009BEF03F0938A81BA0FD05EBE03D05E500A
:1005A00006080AE30A0E646F3ADE938A81BA04D021
:1005B0005E2A938A81AAFDD7AAEF03F0938881B8B7
:1005C0000FD05EBE0DD05E5001080AE20A0E646FC5
:1005D00026DE938881B804D05E2A938881A8FDD74F
:1005E000ABEF03F0938681B608D05EBE06D05E50B6
:1005F000010803E2010E5E6EC1DDACEF03F0F86AA4
:10060000D09E93829380310EC86E280EC66EC78E20
:10061000C79C066A0D6A0E6A0F6A106A196A1A6A1E
:100620001B6A1F6A1E6A1D6A1C6A236A226A216A83
:10063000010E206E800E276E266A256A246A2B6AB8
:100640002A6A296A286A2F6E2E6A316A010E306E74
:10065000336A326A800E376E366A396A010E386E36
:100660003B6A3A6A3D6A3C6A3E6A200E3F6E406AC7
:10067000010E416E100E426E436A476A466A456A31
:10068000010E446E4B6A4A6A496A486E4F684E686A
:100690004D68FE0E4C6E800E536E526A516A506A5F
:1006A000576E566A556A546A7F0E5B6E5A6859686F
:1006B0005868010E5C6E5D6E5E6EC150C00B0F0916
:1006C000C16E070EB46E116812681368146815685D
:1006D000166817681868B2D43C0E936E716B726B13
:1006E000736B746BE6DC036A5E508CDC5F6E606F6C
:1006F0000BD55E2C04D00A0E5F6E606B24D65E5064
:10070000020804E10A0E5F6E606B50D65E5003086B
:1007100004E10A0E5F6E606B89DE5E50040804E13E
:100720000A0E5F6E606BC3D65E50050804E10A0EC8
:100730005F6E606BFDD65E50060804E10A0E5F6EC8
:10074000606B74DE5E50070804E10A0E5F6E606B3A
:0C0750006DDE20D733D746D7C6D7030094
:020000040030CA
:0E00000027CC3E1E0087A1000FC00FE00F406E
:00000001FF
;PIC18F4550
;CRC=1A6B  CREATED="12-Oct-20 15:28"
