:100000008BEF00F0F76A140FF66E000EF72209006E
:10001000F5501200C0F9A4B0999282F880908883BC
:10002000C6A1868E000E956E966E956A8C680468E1
:10003000056895928C9295908C90086A076AF9EF02
:1000400000F068C06AF0696B695107080EE36ABF87
:1000500002D08D9401D08D84969496908D90969038
:100060008D80D8906A37692BEFD71200956A8C6A19
:1000700004B802D08C9801D08C88959804BC02D02A
:100080008C9C01D08C8C959C04B402D08C9401D0B3
:100090008C84959495928C825CEF00F067C068F038
:1000A000D0DF66C068F0CDDF65C068F0CADF64C02D
:1000B00068F0C7DF049CDAD7959E8C9E959E8C8E47
:1000C00095928C921200EA6A610EE96EEF500DE093
:1000D000060E016E006A002EFED7012EFBD77B0EA6
:1000E000006E002EFED7EF2EF3D703EF01F0645120
:1000F000016A635D03E263C000F00CD0006A080E81
:10010000656F633700366451005CD8B0006E01360D
:10011000652FF7D71200F86AD09E93829380310E34
:10012000C86E280EC66EC78EC79C066A0D6A0E6A18
:100130000F6A106A196A1A6A1B6A1F6A1E6A1D6AA8
:100140001C6A236A226A216A010E206E800E276EC5
:10015000266A256A246A2B6A2A6A296A286A2F6E07
:100160002E6A316A010E306E336A326A800E376E43
:10017000366A396A010E386E3B6A3A6A3D6A3C6AF1
:100180003E6A200E3F6E406A010E416E100E426EB6
:10019000436A476A466A456A010E446E4B6A4A6A78
:1001A000496A486E4F684E684D68FE0E4C6E800E70
:1001B000536E526A516A506A576E566A556A546A4B
:1001C0007F0E5B6E5A6859685868010E5C6E5D6EF2
:1001D0005E6A5F6AC150C00B0F09C16E070EB46E34
:1001E000116812681368146815681668176818682B
:1001F00019D7646965696669676950DF040E606FC5
:10020000FA0E616F60D7602FFBD75F2A5F503C0802
:1002100006E15F6A5E2A5E503C0801E15E6A5EC0EC
:1002200063F00A0E646F63DF036A0150EBDE606FF8
:100230005EC063F00A0E646F5ADF036A0050E2DEAC
:10024000616F5FC063F00A0E646F51DF036A015093
:10025000D9DE626F5FC063F00A0E646F48DF036A25
:100260000050D0DE636F60C064F061C065F062C0B2
:0A02700066F0676F13DFC2D70300CA
:020000040030CA
:0E00000027CC3E1E0087A1000FC00FE00F406E
:00000001FF
;PIC18F4550
;CRC=1157  CREATED="19-Oct-20 13:49"
