:040000002EEF06F0E9
:08000800046ED8CF05F0E0CF33
:1000100006F00001E9CF0CF0EACF07F0E1CF08F0DD
:10002000E2CF09F0D9CF0AF0DACF0BF0F3CF12F01C
:10003000F4CF13F0FACF14F0F5CF15F0F6CF16F099
:10004000F7CF17F000C00EF001C00FF002C010F0A3
:1000500003C011F09DA030EF00F09EB074EF00F0EF
:100060000EC000F00FC001F010C002F011C003F08C
:100070000CC0E9FF07C0EAFF078E08C0E1FF09C016
:10008000E2FF0AC0D9FF0BC0DAFF12C0F3FF13C0B2
:10009000F4FF14C0FAFF15C0F5FF16C0F6FF17C035
:1000A000F7FF045006C0E0FF05C0D8FF1000F76A54
:1000B000BE0FF66E000EF7220900F5501200C0F9CF
:1000C000A4B0999282F880908883C6A1868E7F0022
:1000D000F76AE00FF66E000EF7220900F5501200E5
:1000E0007FBFDFEFF7FBFDFEC82B0B0ECF6EDC0EE4
:1000F000CE6E9E9030EF00F06261792067696F20CC
:100100006C61202532643A2532643A25326400005D
:10011000000E956E966E956A8C6819681A689592AD
:100120008C9295908C901D6A1C6AE0EF06F0EDC0F1
:10013000EFF0EE6BEE5107080EE3EFBF02D08D94A7
:1001400001D08D84969496908D9096908D80D890C5
:10015000EF37EE2BEFD71200956A8C6A19B802D0F0
:100160008C9801D08C88959819BC02D08C9C01D0B9
:100170008C8C959C19B402D08C9401D08C8495946D
:1001800095928C82120025C0EDF0D1DF24C0EDF0F5
:10019000CEDF23C0EDF0CBDF22C0EDF0C8DF199435
:1001A000DBDF95968C8695968C9695928C92E0EFF7
:1001B00000F0DA51236E231EDBC022F0221EE3D7AB
:1001C0001200738173C0DAF0D9C0DBF0F2DF7391F3
:1001D00073C0DAF0D9C0DBF0ECDF12007395D7C042
:1001E000D9F0EFDF210E006E002EFED71200EA6A72
:1001F000DC0EE96EEF500DE0060E016E006A002E77
:10020000FED7012EFBD77B0E006E002EFED7EF2E01
:10021000F3D712007391739373857397380ED76F6A
:10022000DDDF420E006E002EFED700000C0ED76FF1
:10023000D5DF420E006E002EFED70000010ED76FF4
:10024000CDDF020EDC6FD3DF060ED76FC7DF420EA5
:10025000006E002EFED70000E4EF06F07385D8C0D4
:10026000D9F0AFDF210E006E002EFED71200D7515D
:10027000D819800BDA6FD7AF02D0D71FD72BD8AFE2
:1002800002D0D81FD82BD851016AD75D03E2D7C05E
:1002900000F00CD0006A080ED96FD7370036D8515D
:1002A000005CD8B0006E0136D92FF7D7DAAF02D094
:1002B000011E012A1200D2C0EAFFD1C0E9FFDDC051
:1002C000EFFFE92AD8B4EA2AEF6AD12BD8B4D22BAF
:1002D00012000900F6CFD8F0F7CFD9F0F5CFDDF056
:1002E000EADFD8C0F6FFD9C0F7FFD72FF2D72FEF3C
:1002F00002F0DE51016ADD5D03E2DDC000F00CD0EA
:10030000006A080EDF6FDD370036DE51005CD8B0C2
:10031000006E0136DF2FF7D71200200ED8A9300E5D
:10032000D96FD7C000F0D7AF08D0001E002A00C098
:10033000D7F02D0ED96FD88FD8810150D7C0DDF0FE
:10034000640EDE6FD6DF00C0D7F0300E0124DA6F06
:10035000D7C0DDF00A0EDE6FCCDF300E0024DC6F7C
:10036000300E0124DB6FD9C000F0300EDA5D04E0FE
:10037000D883D8BFD88512D0D9C0DAF0200ED96F73
:10038000300EDB5D04E0D881D8BFD88307D0D8A475
:10039000D88104E1DAC0DBF0200EDA6FD8B505D0E1
:1003A000D8B306D0D8B107D009D0D9C0DDF083DFEB
:1003B000DAC0DDF080DFDBC0DDF07DDFDCC0DDF04A
:1003C0007ADF1200C7C0D7F00A0ED86F50DF036A79
:1003D00000506DDE266EC7C0D7F00A0ED86F47DF1B
:1003E000036A015064DE276EC9C0D7F00A0ED86FC9
:1003F0003EDF036A00505BDE296EC9C0D7F00A0EEB
:10040000D86F35DF036A015052DE2A6ECAC0D7F0BA
:100410000A0ED86F2CDF036A005049DE2C6ECAC06A
:10042000D7F00A0ED86F23DF036A015040DE2D6E2D
:10043000CC2D02D0269E09D0CC51020802E1299E83
:1004400004D0CC51030801E12C9ED26BB30ED16FC6
:10045000F80EF66E000EF76E0B0ED76F3AD7CAC0C5
:10046000D7F0110ED86F59DF3A0EDD6F24DFC9C007
:10047000D7F0110ED86F51DF3A0EDD6F1CDFC7C009
:10048000D7F0110ED86F49DF1200CC2D03D02668AB
:1004900027680BD0CC51020803E129682A6805D0EF
:1004A000CC51030802E12C682D6851EF07F0956AE2
:1004B0008C6A1ABC02D08C9C01D08C8C959C1AB88A
:1004C00002D08C9801D08C8895981AB402D08C9464
:1004D00001D08C84959495908C801200036ADE5133
:1004E000F7DD016EE06FE01FE0C0EDF020DEDFC061
:1004F000E0F0E01FE0C0EDF01ADE1A98D8DF959A20
:100500008C8A959A8C9A95908C90B2EF02F0DD517E
:10051000DF6FDF1FDFC0EDF00ADEDEC0DFF0DF1FC0
:10052000DFC0EDF004DE1A98C2DF959A8C8A959AA6
:100530008C9A95908C90A0EF02F0DD69DE69E7D788
:10054000B8EF02F02E6A2E50070814E3036A2E500B
:10055000260FE96E000E0320EA6EEFCFDFF02EC00B
:10056000DEF0BCD7A60E006E002EFED70000E5D749
:100570002E2AE9D71200938A81BA12D01B2A010EC3
:10058000DC6F35DED85308E1D7511B5C05E31B6AED
:10059000010E016E07D003D0000E016E03D002D011
:1005A000000E016ED8EF02F0D86B050ED76FE3D7BF
:1005B00001521FE0CB6BCC51010A05E0030A0AE0AF
:1005C000010A0FE015D0C7513B0802E1C76B01D00B
:1005D000C72B0ED0C9513B0802E1C96B01D0C92B12
:1005E00007D0CA51170802E1CA6B01D0CA2B00D04C
:1005F000E9DE6AEF07F0938881B812D01B2A010E5A
:10060000DC6FF5DDD85308E1D7511B5C05E31B6AAD
:10061000010E016E07D003D0000E016E03D002D090
:10062000000E016E18EF03F0D86B050ED76FE3D7FD
:1006300001521FE0CB6BCC51010A05E0030A0AE02E
:10064000010A0FE015D0C75303E13B0EC76F01D07D
:10065000C7070ED0C95303E13B0EC96F01D0C907CC
:1006600007D0CA5303E1170ECA6F01D0CA0700D0E2
:10067000A9DE6CEF07F0938681B612D01B2A010E1B
:10068000DC6FB5DDD85308E1D7511B5C05E31B6A6D
:10069000010E016E07D003D0000E016E03D002D010
:1006A000000E016E58EF03F0D86B050ED76FE3D73D
:1006B000015207E0CC2BCC51030801E2CC6BCB6B91
:1006C00081DE6EEF07F0016A026A006A036ADE519A
:1006D00002E1DD5118E0100EDF6FD890DB37DC3718
:1006E00000360336DE51035C02E1DD51005C07E3B6
:1006F000DD51005ED8A00306DE51035ED8800136CE
:100700000236DF2FEAD71200DCC0EDF010DDDBC0CF
:10071000EDF00DDDDAC0EDF00ADDD9C0EDF007DD5A
:10072000199C1ADD959E8C9E959E8C8E95928C922E
:1007300018EF04F0D8C0DCF0D7C0DBF0DE6B0A0E97
:10074000DD6FC1DF00C0D9F003C0DAF003C003F0F1
:100750000050ADDC1E6ED8C0DCF0D7C0DBF0DE6B25
:100760000A0EDD6FB0DF02C0DAF001C0D9F002C0BE
:10077000DCF001C0DBF0DE6B0A0EDD6FA4DF00C031
:10078000D9F003C0DAF003C003F0005090DC1F6E14
:10079000D8C0DCF0D7C0DBF0DE6B640EDD6F93DF1A
:1007A00002C0DAF001C0D9F002C0DCF001C0DBF019
:1007B000DE6B0A0EDD6F87DF00C0D9F003C0DAF010
:1007C00003C003F0005073DC206ED8C0DCF0D7C04B
:1007D000DBF0030EDE6FE80EDD6F75DF02C0DAF0CE
:1007E00001C0D9F002C0DCF001C0DBF0DE6B0A0E04
:1007F000DD6F69DF00C0D9F003C0DAF003C003F099
:10080000005055DC216E2150C00809E121682050BC
:10081000C00805E120681F50C00801E11F6821C021
:10082000D9F020C0DAF01FC0DBF01EC0DCF06CD7BE
:1008300081EF07F0E9C0EDF07ADCEAC0EDF077DC9B
:10084000EBC0EDF074DCECC0EDF071DC199884DCE9
:10085000959A8C8A959A8C9A95928C9241EF04F095
:10086000E2C0E5F0E1C0E6F0E4C0E7F0E3C0E8F0A4
:10087000E5C0E9F0E6C0EAF0E7C0EBF0E8C0ECF074
:10088000D9D71200DBC0DDF0DCC0DEF0DAC0E0F06A
:10089000D9C0DFF0DEC0E2F0DDC0E1F0E0C0E4F09E
:1008A000DFC0E3F0DDDF1200311E321E331E341EC6
:1008B00034C0DCF033C0DBF032C0DAF031C0D9F044
:1008C000E1DF1200562A346A336A326A316A386AC2
:1008D000376A366A010E356E800E3C6E3B6A3A6AA4
:1008E000396A406A3F6A3E6A3D6A446E436A466AB4
:1008F000010E456E486A476A800E4C6E4B6A4E6A1E
:10090000010E4D6E506A4F6A4A6A496A4AC042F007
:1009100049C041F0200E546E556A100E576E586A49
:10092000536A5C6A5B6A5A6A010E596E606B5F6A51
:100930005E6A5D6E646963696269FE0E616F010ED5
:10094000716F726F800E686F676B666B656B6C6F33
:100950006B6B6A6B696B7F0E706F6F696E696D6927
:10096000526A516A1200DB5303E0DBC0DCF03FDC6B
:10097000532ACEEF04F0DC6BDB51DC5D03E2E2DDF9
:10098000DC2BFAD7532ACEEF04F0DA5304E1D9C0B6
:10099000DBF0E9D703D0D9C0DBF0EDD71200512C42
:1009A0000CD052520AE134C0DCF033C0DBF032C06C
:1009B000DAF031C0D9F066DF1BD05150320804E1C3
:1009C000525202E171DF14D05150640804E15252D6
:1009D00002E16ADF0DD05150960804E1525202E163
:1009E00063DF06D05150C80803E1525201E16ADFCB
:1009F000512AD8B4522AD7C0D9F0D8C0DAF0C5DF0E
:100A0000120053500F0822E34AC0E2F049C0E1F05F
:100A100042C0E4F041C0E3F023DFD8904934D96FFD
:100A20004A34DA6F010ED925496E000EDA214A6E7A
:100A3000D8904230DA6F4130416E800EDA25426E36
:100A4000D7C0D9F0D8C0DAF0A0DF19D053501F08B2
:100A500015E34AC0E2F049C0E1F042C0E4F041C011
:100A6000E3F0FEDED89049364A36D8904232413221
:100A7000D7C0D9F0D8C0DAF088DF01D023DF120068
:100A800054BE3DD0545000083AE25550800A006EE2
:100A90005450800A005C20E23D503510316E3E50CB
:100AA0003610326E3F503710336E40503810346E6F
:100AB00034C0DCF033C0DBF032C0DAF031C0D9F042
:100AC000E1DED7C0D9F0D8C0DAF05FDFD890353694
:100AD000363637363836552A5450555C0FE15406B1
:100AE000556A34C040F033C03FF032C03EF031C0F0
:100AF0003DF0386A376A366A010E356E01D0E2DEA3
:100B0000120053501F0824E334C0DCF033C0DBF084
:100B100032C0DAF031C0D9F0B5DED8903134DA6FB6
:100B20003234DB6F3334DC6F3434DD6F010EDA25A1
:100B3000316E000EDB21326E000EDC21336E000EB2
:100B4000DD21346ED7C0D9F0D8C0DAF01EDF18D05E
:100B500053503F0814E334C0DCF033C0DBF032C044
:100B6000DAF031C0D9F08EDED890313632363336F5
:100B70003436D7C0D9F0D8C0DAF007DF01D0A2DE12
:100B8000120053500F0817E34AC0E2F049C0E1F0E9
:100B90004AC0E4F049C0E3F063DED8904A30DA6F2F
:100BA0004930496E800EDA254A6ED7C0D9F0D8C0D8
:100BB000DAF0EBDE16D053501F0812E34AC0E2F021
:100BC00049C0E1F04AC0E4F049C0E3F049DED89002
:100BD0004A324932D7C0D9F0D8C0DAF0D6DE01D0D7
:100BE00071DE120053501F081FE334C0DCF033C025
:100BF000DBF032C0DAF031C0D9F044DED8903430C6
:100C0000DD6F3330DC6F3230DB6F3130316EDBC0A3
:100C100032F0DCC033F0800EDD25346ED7C0D9F061
:100C2000D8C0DAF0B2DE18D053503F0814E334C015
:100C3000DCF033C0DBF032C0DAF031C0D9F022DEB4
:100C4000D8903432333232323132D7C0D9F0D8C0B2
:100C5000DAF09BDE01D036DEF8EF07F0F86AD09EBE
:100C6000078E93829380310EC86E280EC66EC78E93
:100C7000C79C1B6A226A236A246A256A2E6A2F6A25
:100C8000306A346A336A326A316A386A376A366A75
:100C9000010E356E800E3C6E3B6A3A6A396A406AD4
:100CA0003F6A3E6A3D6A446E436A466A010E456E7B
:100CB000486A476A800E4C6E4B6A4E6A010E4D6E52
:100CC000506A4F6A526A516A536A200E546E556ACE
:100CD000010E566E100E576E586A5C6A5B6A5A6A4D
:100CE000010E596E606B5F6A5E6A5D6E646963696E
:100CF0006269FE0E616F800E686F676B666B656B75
:100D00006C6F6B6B6A6B696B7F0E706F6F696E696E
:100D10006D69010E716F726FCB6BCC6BCE6BCD6B4F
:100D2000D06BCF6BD26BD16BC150C00B0F09C16EB2
:100D3000070EB46E24D0084026FF3F007448696552
:100D40006E20746869206C636420323078342A2AFB
:100D5000200044616920686F6320537520706861CA
:100D60006D206B74202000426F20746869206E67CC
:100D70006869656D2076646B202020000000000EFD
:100D8000F86E0D0EF76E360EF66E0900F550006E19
:100D9000000A13E00900F550016EE8BE05D00F0B04
:100DA000EA6E0900F5CFE9FF01BC090001AC0900BA
:100DB000F5CFEEFF004EE9D7F9D7F86A88EF00F0DB
:100DC0003C0E936E0AEF01F0800ED76FEEEC00F050
:100DD000D36BD35113080DE3036AD351740FE96E3B
:100DE000000E0320EA6EEFCFD8F02EEC01F0D32BEB
:100DF000F0D7C00ED76FEEEC00F0D46BD4511308CF
:100E00000DE3036AD451890FE96E000E0320EA6EE8
:100E1000EFCFD8F02EEC01F0D42BF0D7940ED76F93
:100E2000EEEC00F0D56BD55113080DE3036AD551F4
:100E30009E0FE96E000E0320EA6EEFCFD8F02EEC85
:100E400001F0D52BF0D7A80ED56ED76AD66AB50EAD
:100E5000CD6E0B0ECF6EDC0ECE6EC00EF2129D80EC
:100E6000C76BC86BC96BCA6BE2EC01F0C8BF04D09A
:100E7000C8510908D8A0CCD0CC5313E0C8530CE11A
:100E8000938A81AA09D0938881A806D0938681A6E7
:100E900003D045EF02F005D0C8510508D8B4E2EC04
:100EA00001F0A2EC02F0D40ED76FEEEC00F0D66B9E
:100EB000D65112080DE3036AD651B30FE96E000E46
:100EC0000320EA6EEFCFD8F02EEC01F0D62BF0D74E
:100ED000D4EF02F014EF03F054EF03F0D650CD6FCF
:100EE000D7CFCEF0CF51CD5D03E1D051CE5D11E033
:100EF000CEC0D0F0CDC0CFF0CEC0D8F0CDC0D7F0AE
:100F000019D4CE5303E1CD51640803E2D76A010E30
:100F1000D66E562C05D00A0ED76F010ED86F3FDD66
:100F20005650020805E10A0ED76F010ED86F69DD31
:100F30005650030805E10A0ED76F010ED86FA0DDE9
:100F40005650040805E10A0ED76F010ED86FD9DD9F
:100F50005650050805E10A0ED76F010ED86F11DE55
:100F60005650060805E10A0ED76F010ED86F88DDCE
:100F70005650070805E10A0ED76F010ED86F80DDC5
:100F80005650080805E10A0ED76F010ED86F07DD2D
:100F90005650090805E10A0ED76F010ED86F31DDF2
:100FA00056500A0805E10A0ED76F010ED86F68DDAA
:100FB00056500B0805E10A0ED76F010ED86FA1DD60
:100FC00056500C0805E10A0ED76F010ED86FD9DD17
:100FD00056500D0805E10A0ED76F010ED86F91DD4E
:100FE00056500E0805E10A0ED76F010ED86FFAD5DC
:100FF00056500F0805E10A0ED76F010ED86F40DD7D
:1010000056BE05D056500F0802E2010E566E18D09B
:101010000A0EC85FCB2BCB511408D8B4CC6BC72BAE
:10102000C7513C080BE1C76BC92BC9513C0806E10D
:10103000C96BCA2BCA51180801E1CA6BE2EC01F076
:0410400015D70300BD
:020000040030CA
:0E00000027CC3E1E0087A1000FC00FE00F406E
:00000001FF
;PIC18F4550
;CRC=83E8  CREATED="09-Nov-20 14:31"
