:1000000097EF00F0F76A140FF66E000EF722090062
:10001000F5501200C0F9A4B0999282F880908883BC
:10002000C6A1868E000E956E966E956A8C680468E1
:10003000056895928C9295908C90086A076A06EFF5
:1000400001F071C073F0726B725107080EE373BF59
:1000500002D08D9401D08D84969496908D90969038
:100060008D80D8907337722BEFD71200956A8C6A07
:1000700004B802D08C9801D08C88959804BC02D02A
:100080008C9C01D08C8C959C04B402D08C9401D0B3
:100090008C84959495928C825CEF00F070C071F026
:1000A000D0DF6FC071F0CDDF6EC071F0CADF6DC000
:1000B00071F0C7DF049CDAD7959E8C9E959E8C8E3E
:1000C00095928C921200EA6A620EE96EEF500DE092
:1000D000060E016E006A002EFED7012EFBD77B0EA6
:1000E000006E002EFED7EF2EF3D71200016A026ACF
:1000F000006A036A6D5102E16C5118E0100E6E6FD8
:10010000D8906A376B37003603366D51035C02E1D5
:100110006C51005C07E36C51005ED8A003066D5182
:10012000035ED880013602366E2FEAD71200F86AD5
:10013000D09E93829380310EC86E280EC66EC78EF5
:10014000C79C066A0D6A0E6A0F6A106A196A1A6AF3
:100150001B6A1F6A1E6A1D6A1C6A236A226A216A58
:10016000010E206E800E276E266A256A246A2B6A8D
:100170002A6A296A286A2F6E2E6A316A010E306E49
:10018000336A326A800E376E366A396A010E386E0B
:100190003B6A3A6A3D6A3C6A3E6A200E3F6E406A9C
:1001A000010E416E100E426E436A476A466A456A06
:1001B000010E446E4B6A4A6A496A486E4F684E683F
:1001C0004D68FE0E4C6E800E536E526A516A506A34
:1001D000576E566A556A546A7F0E5B6E5A68596844
:1001E0005868010E5C6E5D6E5F6A5E6A606BC1503E
:1001F000C00B0F09C16E070EB46E11681268136848
:10020000146815681668176818680CD76D696E69E8
:100210006F69706943DF320E626F55DF6053D8A497
:1002200078D05E2AD8B45F2A5FC06BF05EC06AF0F7
:10023000030E6D6FE80E6C6F59DF02C062F001C0F3
:1002400061F002C003F00150DDDE636F5FC06BF050
:100250005EC06AF06D6B640E6C6F48DF02C065F0C3
:1002600001C064F002C06BF001C06AF06D6B0A0E51
:100270006C6F3CDF00C064F003C065F003C003F0A6
:100280000050C0DE666F5FC06BF05EC06AF06D6BE1
:100290000A0E6C6F2BDF02C068F001C067F002C06D
:1002A0006BF001C06AF06D6B0A0E6C6F1FDF00C04F
:1002B00067F003C068F003C003F00050A3DE696F6D
:1002C0005FC06BF05EC06AF06D6B0A0E6C6F0EDF84
:1002D00000C06AF003C06BF003C003F0005092DE70
:1002E0006C6F63C06DF066C06EF069C06FF0706FC8
:1002F000D5DE5E5010080CE15F50270809E1010EC1
:10030000606F0C0E616FFA0E626FDDDE612FFBD73E
:1003100075D05E50D8B45F065E065FC06BF05EC0FD
:100320006AF0030E6D6FE80E6C6FE0DE02C062F0E3
:1003300001C061F002C003F0015064DE636F5FC072
:100340006BF05EC06AF06D6B640E6C6FCFDE02C046
:1003500065F001C064F002C06BF001C06AF06D6B23
:100360000A0E6C6FC3DE00C064F003C065F003C00A
:1003700003F0005047DE666F5FC06BF05EC06AF04E
:100380006D6B0A0E6C6FB2DE02C068F001C067F0E0
:1003900002C06BF001C06AF06D6B0A0E6C6FA6DED6
:1003A00000C067F003C068F003C003F000502ADE0D
:1003B000696F5FC06BF05EC06AF06D6B0A0E6C6FA8
:1003C00095DE00C06AF003C06BF003C003F000507C
:1003D00019DE6C6F63C06DF066C06EF069C06FF0BF
:1003E000706F5CDE5E520AE15F5208E1606B0C0EDA
:1003F000616FFA0E626F67DE612FFBD70CD70300C7
:020000040030CA
:0E00000027CC3E1E0087A1000FC00FE00F406E
:00000001FF
;PIC18F4550
;CRC=5FAF  CREATED="19-Oct-20 13:42"
