:10000000ADEF00F0F76A140FF66E000EF72209004C
:10001000F5501200C0F9A4B0999282F880908883BC
:10002000C6A1868E7F00F76A360FF66E000EF722A5
:100030000900F55012007FBFDFEFF7FBFDFE000E59
:10004000956E966E956A8C680468056895928C9298
:1000500095908C90086A076A1BEF01F0016A026AAA
:10006000006A036A655102E1645118E0100E666F80
:10007000D89062376337003603366551035C02E17E
:100080006451005C07E36451005ED8A0030665512B
:10009000035ED88001360236662FEAD7120068C0A8
:1000A0006AF0696B695107080EE36ABF02D08D944C
:1000B00001D08D84969496908D9096908D80D89056
:1000C0006A37692BEFD71200956A8C6A05BC02D09B
:1000D0008C9C01D08C8C959C05B802D08C9801D05A
:1000E0008C88959805B402D08C9401D08C8495941A
:1000F00095908C801200036A655195DF016E676FE1
:10010000671F67C068F0CBDF66C067F0671F67C016
:1001100068F0C5DF0598D8DF959A8C8A959A8C9AF5
:1001200095908C9012006251646F641F64C068F0F7
:10013000B6DF63C064F0641F64C068F0B0DF059888
:10014000C3DF959A8C8A959A8C9A95908C90ACEF97
:1001500000F062696369E7D71200F86AD09E938263
:100160009380310EC86E280EC66EC78EC79C066A75
:100170000D6A0E6A0F6A106A196A1A6A1B6A1F6A88
:100180001E6A1D6A1C6A236A226A216A010E206E99
:10019000800E276E266A256A246A2B6A2A6A296AD3
:1001A000286A2F6E2E6A316A010E306E336A326A07
:1001B000800E376E366A396A010E386E3B6A3A6ACB
:1001C0003D6A3C6A3E6A200E3F6E406A010E416EF7
:1001D000100E426E436A476A466A456A010E446ED3
:1001E0004B6A4A6A496A486E4F684E684D68FE0E0F
:1001F0004C6E800E536E526A516A506A576E566A40
:10020000556A546A7F0E5B6E5A6859685868010EC9
:100210005C6E5D6E5F6A5E6AC150C00B0F09C16E95
:10022000070EB46E116812681368146815681668B2
:100230001768186804D73C0E936E616B606B615150
:1002400013083EE303E1605187083AE35FC063F0BF
:100250005EC062F0656B0A0E646F00DF00C062F082
:1002600003C063F003C003F00050CCDE646F656B25
:10027000666F41DFA60E006E002EFED7000069DF1C
:100280005FC063F05EC062F0656B0A0E646FE6DE0D
:1002900002C063F001C062F002C003F00150B2DEA0
:1002A000646F010E656F64C066F025DFA60E006EF8
:1002B000002EFED700004DDF602BD8B4612BBFD7D6
:1002C0005E2AD8B45F2A5E503C0804E15F5202E126
:0802D0005F6A5E6AB2D7030009
:020000040030CA
:0E00000027CC3E1E0087A1000FC00FE00F406E
:00000001FF
;PIC18F4550
;CRC=5620  CREATED="26-Oct-20 14:21"
