:1000000068EF00F0000E956E966E956A8C68046835
:10001000056895928C9295908C90086A076A87EF94
:1000200000F01FC021F0206A205007080EE321BE17
:1000300002D08D9401D08D84969496908D90969058
:100040008D80D8902136202AEFD71200956A8C6ACD
:1000500004B802D08C9801D08C88959804BC02D04A
:100060008C9C01D08C8C959C04B402D08C9401D0D3
:100070008C84959495928C824CEF00F01BC01FF0FD
:10008000D0DF1CC01FF0CDDF1DC01FF0CADF1EC0B7
:100090001FF0C7DF0498DAD7959A8C8A959A8C9AC4
:1000A00095928C928FEF00F0EA6A1C0EE96EEF5089
:1000B0000DE0060E016E006A002EFED7012EFBD762
:1000C0007B0E006E002EFED7EF2EF3D794EF00F0DC
:1000D000F86AD09E93829380310EC86E280EC66E49
:1000E000C78EC79C066A0D6A0E6A0F6A106A196A83
:1000F000C150C00B0F09C16E070EB46E11681268B3
:100100001368146815681668176818687BD71A6A28
:100110001B6A1C6A1AC01DF01AC01EF0AFD7020E6F
:100120001B6E960E1C6EC0D71B2EFBD71A1EF0D767
:06013000010E016E030048
:020000040030CA
:0E00000027CC3E1E0087A1000FC00FE00F406E
:00000001FF
;PIC18F4550
;CRC=86B6  CREATED="28-Sep-20 15:35"
