:0400000033EF09F0E1
:08000800046ED8CF05F0E0CF33
:1000100006F00001E9CF0CF0EACF07F0E1CF08F0DD
:10002000E2CF09F0D9CF0AF0DACF0BF0F3CF12F01C
:10003000F4CF13F0FACF14F0F5CF15F0F6CF16F099
:10004000F7CF17F000C00EF001C00FF002C010F0A3
:1000500003C011F09DA030EF00F09EB0CFEF00F094
:100060000EC000F00FC001F010C002F011C003F08C
:100070000CC0E9FF07C0EAFF078E08C0E1FF09C016
:10008000E2FF0AC0D9FF0BC0DAFF12C0F3FF13C0B2
:10009000F4FF14C0FAFF15C0F5FF16C0F6FF17C035
:1000A000F7FF045006C0E0FF05C0D8FF1000F76A54
:1000B000BE0FF66E000EF7220900F5501200C0F9CF
:1000C000A4B0999282F880908883C6A1868E7F0022
:1000D000F76AE00FF66E000EF7220900F5501200E5
:1000E0007FBFDFEFF7FBFDFEF76AF80FF66E000E3D
:1000F000F7220900F5501200000102050304010275
:100100002003070306060205030306060203030491
:100110000703072020070706060303040006060559
:10012000030401010720200700060205030400065E
:1001300002030304202020202020F76A4A0FF66ED5
:10014000010EF7220900F5501200070F1F1F1F1F95
:100150001F1F1F1F1F00000000001C1E1F1F1F1F4E
:100160001F1F00000000001F1F1F1F1F1F1F1F1F3A
:100170001E1C1F1F1F1F1F1F0F071F1F1F00000018
:100180001F1F1F1F1F1F1F1F1F1FF76A9A0FF66ECB
:10019000010EF7220900F550120080C094D404012A
:1001A000792B0B0ECF6EDC0ECE6E9E90000130EFE1
:1001B00000F02A2A44454D2053414E205048414DDD
:1001C0002A2A2000000E956E966E956A8C68196832
:1001D0001A6895928C9295908C901D6A1C6AAEEF6D
:1001E00009F09FC4A1F40401A06BA05107080EE31D
:1001F000A1BF02D08D9401D08D84969496908D905D
:1002000096908D80D890A137A02BEFD700011200D7
:10021000956A8C6A19B802D08C9801D08C88959810
:1002200019BC02D08C9C01D08C8C959C19B402D046
:100230008C9401D08C84959495928C82120025C068
:100240009FF4CFDF24C09FF4CCDF23C09FF4C9DF2D
:1002500022C09FF4C6DF1994DBDF95968C869596B5
:100260008C9695928C921200040193C423F0231E65
:1002700094C422F0221E0001E2DF1200738173C0D9
:1002800093F492C494F4F0DF739173C093F492C426
:1002900094F4EADF1200739591C492F4EFDF210E1B
:1002A000006E002EFED71200040EEA6E8E0EE96E6E
:1002B000EF500DE0060E016E006A002EFED7012EF3
:1002C000FBD77B0E006E002EFED7EF2EF3D7120069
:1002D0007391739373857397380E0401916F0001C6
:1002E000DADF420E006E002EFED700000C0E040175
:1002F000916F0001D0DF420E006E002EFED700008D
:10030000010E0401916F0001C6DF020E04018E6F21
:100310000001CADF060E0401916F0001BCDF420E2E
:10032000006E002EFED70000B2EF09F0040192C467
:1003300025F0251E93C424F0241E000180DF120046
:10034000748574C092F491C493F4F0DF749574C012
:1003500092F491C493F4EADF120074998EC491F47C
:10036000EFDF12007481748374957497749B89C451
:100370008EF4F3DF100E006E002EFED700000C0E80
:1003800004018E6F0001E9DF100E006E002EFED713
:100390000000010E04018E6F0001DFDF020E040178
:1003A0008E6F000181DF060E04018E6F0001D5DF24
:1003B000100E006E002EFED70000B8EF09F0040109
:1003C000AD51AF03F3CF01F0F4CF00F0B003F35021
:1003D0000026AE51AF03F3500020026E0001120060
:1003E00004018D5303E08F698E6902D08F6B8E6B91
:1003F0000001756B75511F0830E3766B76510F085D
:100400002AE30401AE6B75C0ADF4B06B200EAF6F84
:100410000001D5DF0150010F0401906F000E022092
:10042000916F036A000176C002F0D890023603365D
:1004300002500401902703509123770E9025E96E16
:10044000000E9121EA6E8FC4ECFFED528EC4EFFFD7
:100450000001762BD3D7752BCDD777811200748905
:1004600090C491F46DDF120077A16BD0756B75515C
:100470001F0866E37551800904018D6F8E6F0001BE
:100480006CDF800E04018E6F000167DF766B7651A2
:100490000F0854E30401AE6B75C0ADF4B06B200ED1
:1004A000AF6F00018CDF0150010F04018D6F000E52
:1004B00002208E6F036A000176C002F0D8900236E7
:1004C0000336025004018D2703508E23010E8D2523
:1004D000016E000E8E21036E0150770FE96E000E43
:1004E0000320EA6EEFCF90F40001B9DF0401AE6B98
:1004F00075C0ADF4B06B200EAF6F000160DF01502E
:10050000010F04018D6F000E02208E6F036A00013F
:1005100076C002F0D89002360336025004018D27CF
:1005200003508E23770E8D25E96E000E8E21EA6E24
:10053000EFCF90F4000193DF762BA9D7752B97D7D7
:100540007791120073858EC492F498DE210E006EAE
:10055000002EFED712000900F5520CE0F6CF89F408
:10056000F7CF8AF4F5CF8EF4EDDF89C4F6FF8AC4A5
:10057000F7FFF1D7E3EF09F0040189518A19800BE5
:100580008C6F89AF02D0891F892B8AAF02D08A1F56
:100590008A2B8A51016A895D03E289C400F00CD07C
:1005A000006A080E8B6F893700368A51005CD8B01C
:1005B000006E01368B2FF7D78CAF02D0011E012AB7
:1005C0000001120078C489F40A0E04018A6F000148
:1005D000D3DF036A00506BDD266E78C489F40A0EFF
:1005E00004018A6F0001C8DF036A015060DD276ED5
:1005F0007AC489F40A0E04018A6F0001BDDF036A20
:10060000005055DD296E7AC489F40A0E04018A6F00
:100610000001B2DF036A01504ADD2A6E7BC489F40F
:100620000A0E04018A6F0001A7DF036A00503FDD54
:100630002C6E7BC489F40A0E04018A6F00019CDFD2
:10064000036A015034DD2D6E04017F2D02D0269EF9
:1006500009D07F51020802E1299E04D07F5103088E
:1006600001E12C9E00011200956A8C6A1ABC02D02E
:100670008C9C01D08C8C959C1AB802D08C9801D09F
:100680008C8895981AB402D08C9401D08C8495945F
:1006900095908C801200036A04019051000118DDCE
:1006A000016E0401926F921F92C49FF4000199DDC4
:1006B000040191C492F4921F92C49FF4000191DD51
:1006C0001A98D2DF959A8C8A959A8C9A95908C90EC
:1006D0009BEF03F004018FC491F4911F91C49FF428
:1006E00000017FDD040190C491F4911F91C49FF437
:1006F000000177DD1A98B8DF959A8C8A959A8C9AC2
:1007000095908C9089EF03F004018F699069000146
:10071000E1D7A1EF03F02E6A2E50070814E3036A15
:100720002E50260FE96E000E0320EA6EEFCF91F4F3
:100730002EC090F4B0D7A60E006E002EFED700009B
:10074000E3D72E2AE9D71200016A026A006A036A17
:100750000401905102E18F5118E0100E916FD89072
:100760008D378E37003603369051035C02E18F518E
:10077000005C07E38F51005ED8A003069051035E32
:10078000D88001360236912FEAD7000112008EC4BC
:100790009FF427DD8DC49FF424DD8CC49FF421DDFC
:1007A0008BC49FF41EDD199C33DD959E8C9E959E17
:1007B0008C8E95928C9272EF04F08AC48EF489C468
:1007C0008DF40401906B0A0E8F6F0001BDDF00C035
:1007D0008BF4040103C08CF403C003F0005000014B
:1007E00066DC1E6E8AC48EF489C48DF40401906B9D
:1007F0000A0E8F6F0001A8DF02C08CF401C08BF4D9
:1008000002C08EF401C08DF40401906B0A0E8F6F4C
:1008100000019ADF00C08BF4040103C08CF403C014
:1008200003F00050000143DC1F6E8AC48EF489C4BB
:100830008DF40401906B640E8F6F000185DF02C0A0
:100840008CF401C08BF402C08EF401C08DF404015D
:10085000906B0A0E8F6F000177DF00C08BF40401EC
:1008600003C08CF403C003F00050000120DC206EB4
:100870008AC48EF489C48DF4030E0401906FE80ECF
:100880008F6F000161DF02C08CF401C08BF402C0E5
:100890008EF401C08DF40401906B0A0E8F6F00017D
:1008A00053DF00C08BF4040103C08CF403C003F0D9
:1008B0000050000157EC00F0216E2150C00809E102
:1008C00021682050C00805E120681F50C00801E1E0
:1008D0001F6821C08BF420C08CF41FC08DF41EC093
:1008E0008EF455D713EF0AF004018F51016A8E5D23
:1008F00003E28EC400F00CD0006A080E906F8E37B1
:1009000000368F51005CD8B0006E0136902FF7D7BB
:1009100000011200036A04018E51000136DC04015B
:100920008F25906F916F0001B6DC1200006A016A9A
:1009300004018D51D8908EB10026003201328EB361
:100940000026003201328EB50026003201328EB709
:100950000026003201328EB90026003201328EBBF1
:100960000026003201328EBD0026003201328EBFD9
:100970000026003201320001DAEF04F08AC48EF45E
:100980008BC48FF4C7DF04018C6B8C51050828E3FE
:100990008C51030809E1010E8A258D6F8E6F8BC47F
:1009A0008FF40001B7DF040189C48DF4060E8E6F49
:1009B0000001BCD7015004018E6B8D6F036A8C510E
:1009C0008D25016E8E5103220150000174EC00F060
:1009D00004018D6F8E6F0001B5DD04018C2BD5D71E
:1009E0000001120083C48EF40A0E04018F6F00010F
:1009F0007BDF01C081F4040183C48EF40A0E8F6F83
:100A0000000172DF00C082F4040181C489F4010E88
:100A10008A6F8B6B0001B2DF82C489F4010E04017E
:100A20008A6F030E8B6F0001A9DF15EF0AF0040136
:100A3000AA511F0804E2800EA927200EAA5FAAC4AB
:100A400075F0A9390001766F0F0E76170401A951D0
:100A50000F0BFF0A100FAC6FAB2D35D0AE6B75C00E
:100A6000ADF4B06B200EAF6F0001A9DC0150010F97
:100A70000401AD6F000E0220AE6F036A000176C064
:100A800002F0D8900236033602500401AD2703501D
:100A9000AE23770EAD25016E000EAE21036E01C0B0
:100AA000E9FFEA6E036A010E026EAC51006E05E0CA
:100AB000D89002360336002EFBD70250EF120350B7
:100AC000EC10EF6E39D0AE6B75C0ADF4B06B200E8C
:100AD000AF6F000174DC0150010F0401AD6F000E17
:100AE0000220AE6F036A000176C002F0D890023691
:100AF000033602500401AD270350AE23770EAD2517
:100B0000016E000EAE21036E01C0E9FFEA6E036ABA
:100B1000010E026EAC51006E05E0D890023603362D
:100B2000002EFBD70250FF0A006EFF0E031A005082
:100B3000EF160350EC14EF6E000177811200010EE6
:100B40000401A26FA36FA86B99519B5DA96FA95176
:100B5000A9AF03D0000ED880A955036AA06F03C0C7
:100B6000A1F49A519C5DA96FA951A9AF03D0000EC1
:100B7000D880A955036A9E6F03C09FF499519B5D6D
:100B800001E2A2699A519C5D01E2A3699F51A15DB6
:100B90003AE303E19E51A05D36E3D8909E379F373C
:100BA000A0519E5D006EA1519F5900C0A4F4A56F95
:100BB000A051A45DA66FA151A559A76FA15303E150
:100BC000A851A05D1FE399C4A9F49AC4AAF49DC4D6
:100BD000ABF400012CDF0401A5AF08D09E51A4277F
:100BE0009F51A523A2519925996F0AD0A651A427F8
:100BF000A751A523A2519925996FA3519A259A6FC0
:100C0000A82BDCD735D0D890A037A1379E51A05D56
:100C1000006E9F51A15900C0A4F4A56F9E51A45D20
:100C2000A66F9F51A559A76F9F5303E1A8519E5DE1
:100C30001FE399C4A9F49AC4AAF49DC4ABF40001BB
:100C4000F6DE0401A5AF08D0A051A427A151A52329
:100C5000A3519A259A6F0AD0A651A427A751A5237C
:100C6000A2519925996FA3519A259A6FA82BDCD789
:100C700000011200040192532EE090518E5D05E2B6
:100C80008EC495F490C496F404D090C495F48EC4A8
:100C900096F491518F5D05E28FC497F491C498F456
:100CA00004D091C497F48FC498F49551965D12E3E3
:100CB00097C494F49451985D0BE395C4A9F494C43B
:100CC000AAF493C4ABF40001B2DE0401942BF2D772
:100CD000952BEBD72ED08EC499F48FC49AF490C480
:100CE0009BF48FC49CF493C49DF4000128DF8EC450
:100CF00099F491C49AF490C49BF491C49CF493C465
:100D00009DF41DDF8EC499F48FC49AF48EC49BF4B5
:100D100091C49CF493C49DF412DF90C499F48FC4E1
:100D20009AF490C49BF491C49CF493C49DF407DF9F
:100D300004010001120083C48EF4640E04018F6F5D
:100D40000001D2DD01C08AF483C48EF40A0E0401CE
:100D50008F6F0001C9DD01C08EF40A0E04018F6F90
:100D60000001C2DD00C08BF483C48EF40A0E0401BE
:100D70008F6F0001B9DD00C08CF404018D6B0001A0
:100D8000F0EC01F034EC02F004018A51070DF3504D
:100D9000FF0A400F8D6F0A0E8E6F3F0E8F6F140E7D
:100DA000906F8DC491F4010E926F936F000162DF1A
:100DB00004018B51070DF350FF0A400F8D6F1E0E7B
:100DC0008E6F3F0E8F6F280E906F8DC491F4010EC1
:100DD000926F936F00014EDF04018C51070DF350A9
:100DE000FF0A400F8D6F320E8E6F3F0E8F6F3C0EDD
:100DF000906F8DC491F4010E926F936F00013ADFF2
:100E000034EC02F018EF0AF09BC49FF4F1EC00F010
:100E10009CC49FF4F1EC00F09DC49FF4F1EC00F051
:100E20009EC49FF4F1EC00F0199808EC01F0959A3B
:100E30008C8A959A8C9A95928C9230EF07F094C494
:100E400097F493C498F496C499F495C49AF497C40B
:100E50009BF498C49CF499C49DF49AC49EF4D4D78E
:100E600012008DC48FF48EC490F48CC492F48BC4A1
:100E700091F490C494F48FC493F492C496F491C402
:100E800095F4DDDF1200311E321E331E341E34C0D5
:100E90008EF433C08DF432C08CF431C08BF4E1DFBA
:100EA0001200562A346A336A326A316A386A376AFB
:100EB000366A010E356E800E3C6E3B6A3A6A396ABC
:100EC000406A3F6A3E6A3D6A446E436A466A010E62
:100ED000456E486A476A800E4C6E4B6A4E6A010E38
:100EE0004D6E506A4F6A4A6A496A4AC042F049C028
:100EF00041F0200E546E556A100E576E586A536AB0
:100F00005C6A5B6A5A6A010E596E606B5F6A5E6A60
:100F10005D6E646963696269FE0E616F010E716FD7
:100F2000726F800E686F676B666B656B6C6F6B6B57
:100F30006A6B696B7F0E706F6F696E696D69526A5B
:100F4000516A120004018D5306E08DC48EF4000135
:100F500054EC01F00401532A0001CBEF07F0040127
:100F60008E6B8D518E5D06E200018BEC03F0040167
:100F70008E2BF7D7532A0001CBEF07F004018C53D7
:100F800006E18BC48DF40001DDD7000104D08BC4D1
:100F90008DF40001E4D71200512C0CD052520AE11A
:100FA00034C08EF433C08DF432C08CF431C08BF475
:100FB00058DF1BD05150320804E1525202E163DF86
:100FC00014D05150640804E1525202E15CDF0DD0AC
:100FD0005150960804E1525202E155DF06D05150BB
:100FE000C80803E1525201E15CDF512AD8B4522A09
:100FF00089C48BF48AC48CF4C1DF120053500F08EB
:1010000024E34AC094F449C093F442C096F441C02A
:1010100095F415DFD890493404018B6F4A348C6FF6
:10102000010E8B25496E000E8C214A6ED8904230FD
:101030008C6F4130416E800E8C25426E89C48BF4DA
:101040008AC48CF400019ADF19D053501F0815E3AD
:101050004AC094F449C093F442C096F441C095F458
:10106000EEDED89049364A36D8904232413289C4B1
:101070008BF48AC48CF482DF01D013DF120054BEDB
:101080003DD0545000083AE25550800A006E54504A
:10109000800A005C20E23D503510316E3E50361023
:1010A000326E3F503710336E40503810346E34C0BB
:1010B0008EF433C08DF432C08CF431C08BF4D1DEA9
:1010C00089C48BF48AC48CF459DFD890353636360F
:1010D00037363836552A5450555C0FE15406556A58
:1010E00034C040F033C03FF032C03EF031C03DF07C
:1010F000386A376A366A010E356E01D0D2DE1200C8
:1011000053501F0826E334C08EF433C08DF432C030
:101110008CF431C08BF4A5DED890313404018C6F8F
:1011200032348D6F33348E6F34348F6F010E8C25D3
:10113000316E000E8D21326E000E8E21336E000E48
:101140008F21346E89C48BF48AC48CF4000116DFBD
:1011500018D053503F0814E334C08EF433C08DF4DC
:1011600032C08CF431C08BF47CDED890313632360C
:101170003336343689C48BF48AC48CF4FFDE01D054
:1011800090DE120053500F0819E34AC094F449C08E
:1011900093F44AC096F449C095F451DED8904A3091
:1011A00004018C6F4930496E800E8C254A6E89C4CB
:1011B0008BF48AC48CF40001E1DE16D053501F0872
:1011C00012E34AC094F449C093F44AC096F449C06B
:1011D00095F435DED8904A32493289C48BF48AC4FA
:1011E0008CF4CCDE01D05DDE120053501F0821E3E9
:1011F00034C08EF433C08DF432C08CF431C08BF423
:1012000030DED890343004018F6F33308E6F32303F
:101210008D6F3130316E8DC432F08EC433F0800E5C
:101220008F25346E89C48BF48AC48CF40001A6DE49
:1012300018D053503F0814E334C08EF433C08DF4FB
:1012400032C08CF431C08BF40CDED890343233329F
:101250003232313289C48BF48AC48CF48FDE01D0EF
:1012600020DEAEEF0AF0F86AD09E078E938293805C
:10127000310EC86E280EC66EC78EC79C1B6A226AC6
:10128000236A246A256A2E6A2F6A306A346A336AAE
:10129000326A316A386A376A366A010E356E800EF4
:1012A0003C6E3B6A3A6A396A406A3F6A3E6A3D6A06
:1012B000446E436A466A010E456E486A476A800E6C
:1012C0004C6E4B6A4E6A010E4D6E506A4F6A526AFE
:1012D000516A536A200E546E556A010E566E100EF6
:1012E000576E586A5C6A5B6A5A6A010E596E606B87
:1012F0005F6A5E6A5D6E646963696269FE0E616F52
:10130000800E686F676B666B656B6C6F6B6B6A6B7F
:10131000696B7F0E706F6F696E696D69010E716F19
:10132000726F04017C6B7D6B7E6B7F6B780E806FC0
:10133000836B846B856B876B866BC150C00B0F0909
:10134000C16E070EB46E26682768286829682A6867
:101350002B682C682D680001E2EF00F03C0E936EC4
:1013600068EF01F0360E0401896F0001B2EF01F061
:1013700004018D6B0001F0EC01F034EC02F0400E42
:101380000401916F00014BEC01F00401886B88515E
:101390003F080EE3036A885100019DEC00F0040150
:1013A000896F8E6F0001A2EC02F00401882BEFD749
:1013B000800E916F00014BEC01F0B20EF66E010E43
:1013C000F76EABEF02F0A80ED56ED76AD66AB50EEF
:1013D000CD6E0B0ECF6EDC0ECE6EC00EF2129D8067
:1013E0001E0E0401786F796B1D0E7A6F0F0E7B6FE6
:1013F0000001E2EC02F0040179BF04D07951090840
:10140000D8A0BFD000018BEC03F0D6500401836F4D
:101410008451835D19E083C484F48A6B83C489F4A6
:101420000001DDEF03F0F2EF04F083C489F483D40C
:10143000010E04018025006EE8BE03D00050835DDC
:1014400003E3D76A010ED66E562C07D0050E896FBE
:10145000010E8A6F0001A0DD04015650020807E169
:10146000050E896F010E8A6F0001C8DD0401565018
:10147000030807E1050E896F010E8A6F0001FFDD89
:1014800004015650040807E1050E896F010E8A6FAA
:10149000000136DE04015650050807E1050E896F8C
:1014A000010E8A6F00016EDE04015650060807E146
:1014B000050E896F010E8A6F0001E1DD04015650AF
:1014C000070807E1050E896F010E8A6F0001D7DD5D
:1014D00004015650080807E1050E896F010E8A6F56
:1014E00000015ADD04015650090807E1050E896F15
:1014F000010E8A6F000182DD040156500A0807E1DF
:10150000050E896F010E8A6F0001B9DD0401565086
:101510000B0807E1050E896F010E8A6F0001F0DDEF
:10152000040156500C0807E1050E896F010E8A6F01
:10153000000128DE040156500D0807E1050E896FF1
:10154000010E8A6F0001DCDD040156500E0807E130
:10155000050E896F010E8A6F000147D604015650AF
:101560000F0807E1050E896F010E8A6F000187DD04
:10157000040156BE05D056500F0802E2010E566E09
:101580001AD00A0E795F7C2B7C511408D8B47F6B7B
:10159000782B78513C080BE1786B7A2B7A513C0818
:1015A00006E17A6B7B2B7B51180801E17B6B000114
:0A15B000E2EC02F0040120D7030072
:020000040030CA
:0E00000027CC3E1E0087A1000FC00FE00F406E
:00000001FF
;PIC18F4550
;CRC=0BBC  CREATED="07-Dec-20 13:37"
