:10000000E7EF02F0F76A140FF66E000EF722090010
:10001000F5501200C0F9A4B0999282F880908883BC
:10002000C6A1868E7F00000E956E966E956A8C68CE
:100030000468056895928C9295908C90086A076A7E
:1000400053EF03F08E0E006E04017251005E73C414
:1000500002F074C401F0028E005209E0D8900252FE
:1000600002E1015204E002320132002EF7D773AFF1
:1000700005D0011E021E012AD8B4022A0001120076
:10008000016A026A006A036A04017B5102E17A5143
:1000900018E0100E7C6FD890783779370036033629
:1000A0007B51035C02E17A51005C07E37A51005E08
:1000B000D8A003067B51035ED880013602367C2F20
:1000C000EAD7000112007AC47CF404017B6B7B51F7
:1000D00007080EE37CBF02D08D9401D08D849694E6
:1000E00096908D9096908D80D8907C377B2BEFD713
:1000F00000011200956A8C6A04B802D08C9801D075
:100100008C88959804BC02D08C9C01D08C8C959CDA
:1001100004B402D08C9401D08C84959495928C82F6
:10012000A0EF00F079C47AF4CEDF78C47AF4CBDFA4
:1001300077C47AF4C8DF76C47AF4C5DF049CDAD7D2
:10014000959E8C9E959E8C8E95928C923CEF01F0A4
:1001500075C479F474C478F404017B6B0A0E7A6F69
:1001600000018EDF00C076F4040103C077F403C001
:1001700003F00050000146DF096E75C479F474C4C1
:1001800078F404017B6B0A0E7A6F000179DF02C0FC
:1001900077F401C076F402C079F401C078F4040168
:1001A0007B6B0A0E7A6F00016BDF00C076F40401EE
:1001B00003C077F403C003F00050000123DF0A6E90
:1001C00075C479F474C478F404017B6B640E7A6F9F
:1001D000000156DF02C077F401C076F402C079F462
:1001E00001C078F404017B6B0A0E7A6F000148DFCE
:1001F00000C076F4040103C077F403C003F000509C
:10020000000100DF0B6E75C479F474C478F4030E3A
:1002100004017B6FE80E7A6F000132DF02C077F4D1
:1002200001C076F402C079F401C078F404017B6B5C
:100230000A0E7A6F000124DF00C076F4040103C0C7
:1002400077F403C003F000500001DCDE0C6E0C50AC
:10025000C00809E10C680B50C00805E10B680A50A2
:10026000C00801E10A680CC076F40BC077F40AC03C
:1002700078F409C079F456D75DEF01F06FC475F4D6
:100280006EC474F46DC473F46CC472F4DBDE02C02B
:1002900071F401C070F46FC475F46EC474F46DC46D
:1002A00073F46CC472F4CEDE02C073F401C072F455
:1002B00002C075F401C074F44BD71200040EEA6E4C
:1002C0006D0EE96EEF500DE0060E016E006A002E15
:1002D000FED7012EFBD77B0E006E002EFED7EF2E31
:1002E000F3D712008E0E006E6DC401F06CC402F0E4
:1002F000036A015209E102C001F0026A080E005EC1
:10030000015202E1006A08D0D89001BE04D0023642
:1003100001360006F9D7019EAFEF01F00A0E040185
:100320006D6F0001CBDF96948D840A0E04016D6F12
:100330000001C4DF96948D94CF6ACE6A968284A21F
:10034000FDD7A50ECD6E968284B2FDD7CE50CFCF0D
:1003500003F004016C6FCFCF6DF40001C3D703C06D
:100360006BF402C06AF401C069F400C068F4CF6A9B
:10037000CE6A5EEF03F004016C51D8B471D0006E08
:100380007051D8B46DD0002604E3810E002668E2D7
:1003900004D07F0E005E64E363E06DC474F47151B9
:1003A000741B6D8F718F6F517303F4CF76F46E51A0
:1003B0007203F4CF03F0F3CF75F47303F350762791
:1003C000F4507523000E03226F517203F350762709
:1003D000F4507523000E026A032202226D5173034A
:1003E000F3507527F4500322000E02226D51720360
:1003F000F3500326F4500222000E016A01226F51CD
:100400007103F3507527F4500322000E02220122DB
:100410006E517103F3500326F4500222000E0122A4
:100420006D517103F3500226F4500122002A01BEDF
:1004300005D075370336023601360006000E75AF5B
:100440000AD0032A02220122015005E1025003E1F1
:10045000035001E1002A74BF018E74AF019E04D0E5
:10046000006A016A026A036A000171EF03F0040185
:100470006C51D8B4A5D0786F7051D8B4A1D0785F42
:1004800005E37F0E7827D8B09BD006D0810E785F29
:10049000D8A096D0D8B494D078C400F0016A026A8B
:1004A000036A776B6DC476F4768F6EC475F46FC48F
:1004B00074F4190E786F7351745F0DE2010E755F5D
:1004C0000AE2765F08E2775F06E2772B762B752BE0
:1004D0007351742728D07251755F12E2010E765F56
:1004E0000FE2775F0DE2772B762B725175277351F0
:1004F000742719E3752B17E1762B15E1772B13D0B1
:1005000071518009765F0EE2010E775F0BE2772B67
:1005100071518009762772517527E9E3762BE7E15F
:10052000772BE5D70380782F01D00BD0D890743784
:10053000753776377737D8900336023601367937F4
:10054000BAD779A106D0D89001320232033279337A
:1005500002D0000635E079BF1ED0D89074377537C9
:10056000763777377351745F07E2010E755F04E2E7
:10057000765F02E2775F1AE37251755F05E2010E62
:10058000765F02E2775F12E371518009765F03E2E2
:10059000010E775F0BE3032A09E1022A07E1012A32
:1005A00005E1002A0DE00132023203326DC478F415
:1005B0007151781B78AF02D0018E06D0019E04D015
:1005C000006A016A026A036A00018AEF03F0F86AAE
:1005D000D09E93829380310EC86E280EC66EC78E51
:1005E000C79C066A0D6A0E6A0F6A106A196A1A6A4F
:1005F0001B6A1F6A1E6A1D6A1C6A236A226A216AB4
:10060000010E206E800E276E266A256A246A2B6AE8
:100610002A6A296A286A2F6E2E6A316A010E306EA4
:10062000336A326A800E376E366A396A010E386E66
:100630003B6A3A6A3D6A3C6A3E6A200E3F6E406AF7
:10064000010E416E100E426E436A476A466A456A61
:10065000010E446E4B6A4A6A496A486E4F684E689A
:100660004D68FE0E4C6E800E536E526A516A506A8F
:10067000576E566A556A546A7F0E5B6E5A6859689F
:100680005868010E5C6E5D6EC150C00B0F09C16EE3
:10069000070EB46E1168126813681468156816683E
:1006A00017681868C0D43C0E936ECD6A04016F6B56
:1006B0006E6B6D6B6C6B0001E1DD30D66BC46FF45B
:1006C0006AC46EF469C46DF468C46CF4CD0E0401A0
:1006D000736FCC0E726F4C0E716F7E0E706F0001D7
:1006E0004AD603C06BF402C06AF401C069F400C0CA
:1006F00068F46BC46FF46AC46EF469C46DF468C4C2
:100700006CF40401736B726B680E716F840E706F02
:100710000001ADD603C06BF402C06AF401C069F4F5
:1007200000C068F46BC46FF46AC46EF469C46DF4FD
:1007300068C46CF4A3DD020E04016C6FFA0E6D6FD9
:100740000001BCDD04016C2FF9D70001B6D703000E
:020000040030CA
:0E00000027CC3E1E0087A1000FC00FE00F406E
:00000001FF
;PIC18F4550
;CRC=B6C3  CREATED="14-Dec-20 12:49"
