:10000000C2EF00F0000E956E966E956A8C680468DB
:10001000056895928C9295908C90086A076AE5EF36
:1000200000F02F50016A2E5C03E22EC000F00CD0CD
:10003000006A080E306E2E3600362F50005CD8B0A5
:10004000006E0136302EF7D712003AC03CF03B6A02
:100050003B5007080EE33CBE02D08D9401D08D8446
:10006000969496908D9096908D80D8903C363B2AB1
:10007000EFD71200956A8C6A04B802D08C9801D030
:100080008C88959804BC02D08C9C01D08C8C959C5B
:1000900004B402D08C9401D08C84959495928C8277
:1000A00060EF00F036C03AF0D0DF37C03AF0CDDF75
:1000B00038C03AF0CADF39C03AF0C7DF0498DAD75F
:1000C000959A8C8A959A8C9A95928C9279EF00F0F9
:1000D0002FC032F02EC033F031C034F030C035F0D4
:1000E00032C036F033C037F034C038F035C039F0A4
:1000F000D9D7ACEF00F025C02EF00A0E2F6E91DF9D
:1001000000C026F025C02EF00A0E2F6E8ADF01C037
:1001100027F0296A286A2B6A2A6A010E2C6E2C5055
:10012000265C06E3D8902A362B362A802C2AF7D76D
:10013000010E2D6E2D50275C06E3D8902836293607
:1001400028802D2AF7D729C02FF028C02EF02BC0E9
:1001500031F02AC030F0BCD7F1EF00F0EA6A250E8A
:10016000E96EEF500DE0060E016E006A002EFED71C
:10017000012EFBD77B0E006E002EFED7EF2EF3D79D
:10018000F4EF00F0F86AD09E93829380310EC86E2F
:10019000280EC66EC78EC79C066A0D6A0E6A0F6A65
:1001A000106A196A010E226E236E246EC150C00BB4
:1001B0000F09C16E070EB46E1168126813681468D7
:1001C00015681668176818681DD71D6A1C6A1B6AAF
:1001D0001A6A216A206A1F68FE0E1E6E1AC025F078
:1001E0008AD7640E256EBAD7010E1A26D8B01B2AFC
:1001F000D8B41C2AD8B41D2AF1D7010E016E030011
:020000040030CA
:0E00000027CC3E1E0087A1000FC00FE00F406E
:00000001FF
;PIC18F4550
;CRC=9C87  CREATED="30-Nov-20 02:17"
