:100000007FEF00F0F76A140FF66E000EF72209007A
:10001000F5501200C0F9A4B0999282F880908883BC
:10002000C6A1868E000E956E966E956A8C680468E1
:10003000056895928C9295908C90086A076AECEF0F
:1000400000F065C067F0666B665107080EE367BF96
:1000500002D08D9401D08D84969496908D90969038
:100060008D80D8906737662BEFD71200956A8C6A1F
:1000700004B802D08C9801D08C88959804BC02D02A
:100080008C9C01D08C8C959C04B402D08C9401D0B3
:100090008C84959495928C825CEF00F064C065F03E
:1000A000D0DF63C065F0CDDF62C065F0CADF61C03C
:1000B00065F0C7DF049CDAD7959E8C9E959E8C8E4A
:1000C00095928C921200EA6A5F0EE96EEF500DE095
:1000D000060E016E006A002EFED7012EFBD77B0EA6
:1000E000006E002EFED7EF2EF3D7F4EF00F061691B
:1000F0006269636960C064F0D1DFFAEF00F0F86A0A
:10010000D09E93829380310EC86E280EC66EC78E25
:10011000C79C066A0D6A0E6A0F6A106A196A1A6A23
:100120001B6A1F6A1E6A1D6A1C6A236A226A216A88
:10013000010E206E800E276E266A256A246A2B6ABD
:100140002A6A296A286A2F6E2E6A316A010E306E79
:10015000336A326A800E376E366A396A010E386E3B
:100160003B6A3A6A3D6A3C6A3E6A200E3F6E406ACC
:10017000010E416E100E426E436A476A466A456A36
:10018000010E446E4B6A4A6A496A486E4F684E686F
:100190004D68FE0E4C6E800E536E526A516A506A64
:1001A000576E566A556A546A7F0E5B6E5A68596874
:1001B0005868010E5C6E5D6E5E6AC150C00B0F091F
:1001C000C16E070EB46E1168126813681468156862
:1001D00016681768186826D7616962696369646977
:1001E0005DDF640E5F6E6FD7036A5E500BDF5F6E7C
:1001F000606F7DD75E2A5E50090801E25E6AF1D722
:020200000300F9
:020000040030CA
:0E00000027CC3E1E0087A1000FC00FE00F406E
:00000001FF
;PIC18F4550
;CRC=93F4  CREATED="19-Oct-20 13:02"
