:1000000068EF00F0000E956E966E956A8C68046835
:10001000056895928C9295908C90086A076A87EF94
:1000200000F020C022F0216A215007080EE322BE12
:1000300002D08D9401D08D84969496908D90969058
:100040008D80D8902236212AEFD71200956A8C6ACB
:1000500004B802D08C9801D08C88959804BC02D04A
:100060008C9C01D08C8C959C04B402D08C9401D0D3
:100070008C84959495928C824CEF00F01CC020F0FB
:10008000D0DF1DC020F0CDDF1EC020F0CADF1FC0B2
:1000900020F0C7DF0498DAD7959A8C8A959A8C9AC3
:1000A00095928C92AAEF00F0EA6A1C0EE96EEF506E
:1000B0000DE0060E016E006A002EFED7012EFBD762
:1000C0007B0E006E002EFED7EF2EF3D7ADEF00F0C3
:1000D000F86AD09E93829380310EC86E280EC66E49
:1000E000C78EC79C066A0D6A0E6A0F6A106A196A83
:1000F000C150C00B0F09C16E070EB46E11681268B3
:100100001368146815681668176818687BD7010E9D
:100110001A6E1B6E1A50800802E0000E01D0010E0C
:100120001C6E1A2C01D002D0000E01D0010E1C1042
:1001300001E01B1E1B5203E1D8901A3602D0D89062
:100140001A321AC01CF01AC01DF01AC01EF01AC0D4
:100150001FF094D7640E1C6EA7D7DCD7010E016E7A
:0201600003009A
:020000040030CA
:0E00000027CC3E1E0087A1000FC00FE00F406E
:00000001FF
;PIC18F4550
;CRC=8C39  CREATED="28-Sep-20 15:57"
