:0400000067EF07F0AF
:08000800046ED8CF05F0E0CF33
:1000100006F00001E9CF0CF0EACF07F0E1CF08F0DD
:10002000E2CF09F0D9CF0AF0DACF0BF0F3CF12F01C
:10003000F4CF13F0FACF14F0F5CF15F0F6CF16F099
:10004000F7CF17F000C00EF001C00FF002C010F0A3
:1000500003C011F09DA030EF00F09EB0D9EF00F08A
:100060000EC000F00FC001F010C002F011C003F08C
:100070000CC0E9FF07C0EAFF078E08C0E1FF09C016
:10008000E2FF0AC0D9FF0BC0DAFF12C0F3FF13C0B2
:10009000F4FF14C0FAFF15C0F5FF16C0F6FF17C035
:1000A000F7FF045006C0E0FF05C0D8FF1000F76A54
:1000B000BE0FF66E000EF7220900F5501200C0F9CF
:1000C000A4B0999282F880908883C6A1868E7F0022
:1000D000F76AE00FF66E000EF7220900F5501200E5
:1000E0007FBFDFEFF7FBFDFEF76AF80FF66E000E3D
:1000F000F7220900F55012003F7FBFFFF76A0C0F8F
:10010000F66E010EF7220900F550120000010205FB
:100110000304010220030703060602050303060683
:10012000020303040703072020070706060303044E
:10013000000606050304010107202007000602054A
:100140000304000602030304202020202020F76A75
:100150005E0FF66E010EF7220900F5501200070F30
:100160001F1F1F1F1F1F1F1F1F00000000001C1E3E
:100170001F1F1F1F1F1F00000000001F1F1F1F1F2A
:100180001F1F1F1F1E1C1F1F1F1F1F1F0F071F1FAB
:100190001F0000001F1F1F1F1F1F1F1F1F1FF76AA9
:1001A000AE0FF66E010EF7220900F550120080C066
:1001B00094D40401792B0B0ECF6EDC0ECE6E9E9084
:1001C000000130EF00F02A2A44454D2053414E20D3
:1001D0005048414D2A2A20002A2A44454D205341A7
:1001E0004E205048414D2A2A2000000E956E966EF2
:1001F000956A8C6819681A6895928C9295908C9083
:100200001D6A1C6AE2EF07F0A0C4A2F40401A16B0E
:10021000A15107080EE3A2BF02D08D9401D08D84B6
:10022000969496908D9096908D80D890A237A12B21
:10023000EFD700011200956A8C6A19B802D08C9829
:1002400001D08C88959819BC02D08C9C01D08C8CE4
:10025000959C19B402D08C9401D08C84959495927D
:100260008C82120025C0A0F4CFDF24C0A0F4CCDF24
:1002700023C0A0F4C9DF22C0A0F4C6DF1994DBDFDD
:1002800095968C8695968C9695928C921200040188
:1002900094C423F0231E95C422F0221E0001E2DF45
:1002A0001200738173C094F493C495F4F0DF7391DA
:1002B00073C094F493C495F4EADF1200739592C46A
:1002C00093F4EFDF210E006E002EFED71200040E15
:1002D000EA6E8F0EE96EEF500DE0060E016E006AB9
:1002E000002EFED7012EFBD77B0E006E002EFED710
:1002F000EF2EF3D712007391739373857397380EB3
:100300000401926F0001DADF420E006E002EFED76C
:1003100000000C0E0401926F0001D0DF420E006E4F
:10032000002EFED70000010E0401926F0001C6DF0F
:10033000020E04018F6F0001CADF060E0401926FE6
:100340000001BCDF420E006E002EFED70000E6EF7B
:1003500007F0040192C425F0251E93C424F0241E46
:10036000000180DF1200748574C092F491C493F48C
:10037000F0DF749574C092F491C493F4EADF120034
:1003800074998BC491F4EFDF1200748174837495B7
:100390007497749B8AC48BF4F3DF100E006E002EEA
:1003A000FED700000C0E04018B6F0001E9DF100E78
:1003B000006E002EFED70000010E04018B6F0001BD
:1003C000DFDF020E04018F6F000181DF060E0401E2
:1003D0008B6F0001D5DF100E006E002EFED70000DF
:1003E000ECEF07F0748990C491F4BDDF12000900AE
:1003F000F5520CE0F6CF8AF4F7CF8BF4F5CF90F4FA
:10040000F1DF8AC4F6FF8BC4F7FFF1D7F8EF07F0EE
:1004100073858FC493F445DF210E006E002EFED746
:1004200012000900F5520CE0F6CF8AF4F7CF8BF4F6
:10043000F5CF8FF4EDDF8AC4F6FF8BC4F7FFF1D759
:100440001CEF08F004018A518B19800B8D6F8AAF65
:1004500002D08A1F8A2B8BAF02D08B1F8B2B8B5124
:10046000016A8A5D03E28AC400F00CD0006A080EBB
:100470008C6F8A3700368B51005CD8B0006E013625
:100480008C2FF7D78DAF02D0011E012A0001120078
:1004900078C48AF40A0E04018B6F0001D3DF036A6B
:1004A000005005DE266E78C48AF40A0E04018B6FB4
:1004B0000001C8DF036A0150FADD276E7AC48AF4AE
:1004C0000A0E04018B6F0001BDDF036A0050EFDDEF
:1004D000296E7AC48AF40A0E04018B6F0001B2DF20
:1004E000036A0150E4DD2A6E7BC48AF40A0E04011B
:1004F0008B6F0001A7DF036A0050D9DD2C6E7BC42F
:100500008AF40A0E04018B6F00019CDF036A01501C
:10051000CEDD2D6E04017F2D02D0269E09D07F51A5
:10052000020802E1299E04D07F51030801E12C9EBC
:1005300000011200956A8C6A1ABC02D08C9C01D012
:100540008C8C959C1AB802D08C9801D08C88959888
:100550001AB402D08C9401D08C84959495908C80A0
:100560001200036A040191510001B2DD016E040121
:10057000936F931F93C4A0F4000146DE040192C45C
:1005800093F4931F93C4A0F400013EDE1A98D2DFC7
:10059000959A8C8A959A8C9A95908C9001EF03F09D
:1005A000040190C492F4921F92C4A0F400012CDEC6
:1005B000040191C492F4921F92C4A0F4000124DEBD
:1005C0001A98B8DF959A8C8A959A8C9A95908C9007
:1005D000EFEF02F00401906991690001E1D707EFA4
:1005E00003F02E6A2E50070814E3036A2E50260FDC
:1005F000E96E000E0320EA6EEFCF92F42EC091F464
:10060000B0D7A60E006E002EFED70000E3D72E2A2C
:10061000E9D71200016A026A006A036A0401915173
:1006200002E1905118E0100E926FD8908E378F37FC
:10063000003603369151035C02E19051005C07E300
:100640009051005ED8A003069151035ED880013618
:100650000236922FEAD7000112008FC4A0F4D4DD35
:100660008EC4A0F4D1DD8DC4A0F4CEDD8CC4A0F482
:10067000CBDD199CE0DD959E8C9E959E8C8E95928F
:100680008C92D7EF03F08BC48FF48AC48EF40401EC
:10069000916B0A0E906F0001BDDF00C08CF4040165
:1006A00003C08DF403C003F00050000100DD1E6E96
:1006B0008BC48FF48AC48EF40401916B0A0E906F80
:1006C0000001A8DF02C08DF401C08CF402C08FF4D9
:1006D00001C08EF40401916B0A0E906F00019ADF45
:1006E00000C08CF4040103C08DF403C003F000507B
:1006F0000001DDDC1F6E8BC48FF48AC48EF404010C
:10070000916B640E906F000185DF02C08DF401C013
:100710008CF402C08FF401C08EF40401916B0A0EB8
:10072000906F000177DF00C08CF4040103C08DF4EA
:1007300003C003F000500001BADC206E8BC48FF4BC
:100740008AC48EF4030E0401916FE80E906F0001CD
:1007500061DF02C08DF401C08CF402C08FF401C0CF
:100760008EF40401916B0A0E906F000153DF00C0FC
:100770008CF4040103C08DF403C003F000500001A9
:1007800096DC216E2150C00809E121682050C00884
:1007900005E120681F50C00801E11F6821C08CF4EA
:1007A00020C08DF41FC08EF41EC08FF456D74CEFBE
:1007B00008F004019151016A905D03E290C400F0D9
:1007C0000CD0006A080E926F903700369151005C91
:1007D000D8B0006E0136922FF7D700011200200E1C
:1007E00004018BA9300E8C6F8AC400F000AE08D0D3
:1007F000001E002A00C08AF42D0E8C6F8B8F8B8117
:1008000001508AC490F4640E916F0001D2DF00C0E1
:100810008AF4300E012404018D6F8AC490F40A0E0C
:10082000916F0001C6DF300E002404018F6F300E7F
:1008300001248E6F8CC400F0300E8D5D04E08B833C
:100840008BBF8B8512D08CC48DF4200E8C6F300E34
:100850008E5D04E08B818BBF8B8307D0D8A48B8106
:1008600004E18DC48EF4200E8D6F8BB505D08BB353
:1008700007D08BB109D00CD08CC490F40001B2DD4C
:100880008DC490F40001AEDD8EC490F40001AADDA9
:100890008FC490F40001A6DDC1EF04F0036A0401E7
:1008A0008F5100017CDC04019025916F926F000153
:1008B00005DD1200006A016A04018E51D8908FB1E3
:1008C0000026003201328FB30026003201328FB58C
:1008D0000026003201328FB70026003201328FB974
:1008E0000026003201328FBB0026003201328FBD5C
:1008F0000026003201328FBF002600320132000193
:1009000012008BC48FF48CC490F4C8DF04018D6B8B
:100910008D51050828E38D51030809E1010E8B254F
:100920008E6F8F6F8CC490F40001B8DF04018AC40D
:100930008EF4060E8F6F0001BDDF015004018F6B36
:100940008E6F036A8D518E25016E8F5103220150E7
:1009500000017EEC00F004018E6F8F6F000158DD06
:1009600004018D2BD5D700011200900E04018B6F6E
:10097000000106DD83C48AF4110E04018B6F0001AF
:100980002ED783C490F40A0E0401916F000111DF89
:1009900001C081F4040183C490F40A0E916F000138
:1009A00008DF00C082F4040181C48AF4010E8B6F59
:1009B0008C6B0001A6DF82C48AF4010E04018B6FE8
:1009C000030E8C6F00019DDF4DEF08F09CC4A0F476
:1009D0001BDC9DC4A0F418DC9EC4A0F415DC9FC4ED
:1009E000A0F412DC199827DC959A8C8A959A8C9A37
:1009F00095928C920DEF05F095C498F494C499F4F7
:100A000097C49AF496C49BF498C49CF499C49DF43A
:100A10009AC49EF49BC49FF4D9D712008EC490F45C
:100A20008FC491F48DC493F48CC492F491C495F462
:100A300090C494F493C497F492C496F4DDDF12004A
:100A4000311E321E331E341E34C08FF433C08EF478
:100A500032C08DF431C08CF4E1DF1200562A346AC2
:100A6000336A326A316A386A376A366A010E356E1D
:100A7000800E3C6E3B6A3A6A396A406A3F6A3E6A57
:100A80003D6A446E436A466A010E456E486A476A8B
:100A9000800E4C6E4B6A4E6A010E4D6E506A4F6A64
:100AA0004A6A496A4AC042F049C041F0200E546E79
:100AB000556A100E576E586A536A5C6A5B6A5A6AC6
:100AC000010E596E606B5F6A5E6A5D6E6469636990
:100AD0006269FE0E616F010E716F726F800E686F3A
:100AE000676B666B656B6C6F6B6B6A6B696B7F0EAC
:100AF000706F6F696E696D69526A516A1200040104
:100B00008E5306E08EC48FF4000167EC01F00401FF
:100B1000532A0001A7EF05F004018F6B8E518F5D02
:100B200005E200015EDD04018F2BF8D7532A000196
:100B3000A7EF05F004018D5306E18CC48EF400018B
:100B4000DED7000104D08CC48EF40001E5D712007A
:100B5000512C0CD052520AE134C08FF433C08EF4C1
:100B600032C08DF431C08CF459DF1BD051503208A3
:100B700004E1525202E164DF14D05150640804E1F0
:100B8000525202E15DDF0DD05150960804E15252FD
:100B900002E156DF06D05150C80803E1525201E18C
:100BA0005DDF512AD8B4522A8AC48CF48BC48DF4E8
:100BB000C1DF120053500F0824E34AC095F449C026
:100BC00094F442C097F441C096F416DFD8904934AB
:100BD00004018C6F4A348D6F010E8C25496E000E16
:100BE0008D214A6ED89042308D6F4130416E800E1B
:100BF0008D25426E8AC48CF48BC48DF400019ADF7B
:100C000019D053501F0815E34AC095F449C094F415
:100C100042C097F441C096F4EFDED89049364A3688
:100C2000D890423241328AC48CF48BC48DF482DF76
:100C300001D014DF120054BE3DD0545000083AE2F7
:100C40005550800A006E5450800A005C20E23D50EE
:100C50003510316E3E503610326E3F503710336EC5
:100C600040503810346E34C08FF433C08EF432C02C
:100C70008DF431C08CF4D2DE8AC48CF48BC48DF434
:100C800059DFD8903536363637363836552A5450EF
:100C9000555C0FE15406556A34C040F033C03FF054
:100CA00032C03EF031C03DF0386A376A366A010E14
:100CB000356E01D0D3DE120053501F0826E334C036
:100CC0008FF433C08EF432C08DF431C08CF4A6DEC4
:100CD000D890313404018D6F32348E6F33348F6F7E
:100CE0003434906F010E8D25316E000E8E21326EE0
:100CF000000E8F21336E000E9021346E8AC48CF466
:100D00008BC48DF4000116DF18D053503F0814E354
:100D100034C08FF433C08EF432C08DF431C08CF403
:100D20007DDED89031363236333634368AC48CF490
:100D30008BC48DF4FFDE01D091DE120053500F08FA
:100D400019E34AC095F449C094F44AC097F449C0E5
:100D500096F452DED8904A3004018D6F4930496EC6
:100D6000800E8D254A6E8AC48CF48BC48DF40001EC
:100D7000E1DE16D053501F0812E34AC095F449C073
:100D800094F44AC097F449C096F436DED8904A32BB
:100D900049328AC48CF48BC48DF4CCDE01D05EDE83
:100DA000120053501F0821E334C08FF433C08EF477
:100DB00032C08DF431C08CF431DED890343004016F
:100DC000906F33308F6F32308E6F3130316E8EC412
:100DD00032F08FC433F0800E9025346E8AC48CF4C8
:100DE0008BC48DF40001A6DE18D053503F0814E3E5
:100DF00034C08FF433C08EF432C08DF431C08CF423
:100E00000DDED89034323332323231328AC48CF42F
:100E10008BC48DF48FDE01D021DEE3EF08F00401F6
:100E20008B698BC48AF48C6B8CBF03D08C51030804
:100E300024E3036A8C51000174EC00F00401936A0E
:100E40008A6E938481B404D0030E8B6F16D013D0B6
:100E5000938681B604D0020E8B6F0FD00CD093888E
:100E600081B804D0010E8B6F08D005D0938A81BA67
:100E700002D08B6B02D08C2BD7D78B3D01D00AD000
:100E80008CC48EF4040E8F6F000114DD04018B51AD
:100E900001248A6F8AC401F000011200C0DF01C082
:100EA0002FF02F3C01D00FD0010E04018F6F0001F5
:100EB00067EC01F0B4DF01C02FF0B1DF01C030F00A
:100EC0002F50305CFAE02FC001F0F7EF08F0F86A1D
:100ED000D09E078E93829380310EC86E280EC66E08
:100EE000C78EC79C1B6A226A236A246A256A2E6AF7
:100EF0002F6A306A346A336A326A316A386A376A0A
:100F0000366A010E356E800E3C6E3B6A3A6A396A6B
:100F1000406A3F6A3E6A3D6A446E436A466A010E11
:100F2000456E486A476A800E4C6E4B6A4E6A010EE7
:100F30004D6E506A4F6A526A516A536A200E546E5F
:100F4000556A010E566E100E576E586A5C6A5B6ADF
:100F50005A6A010E596E606B5F6A5E6A5D6E646903
:100F600063696269FE0E616F800E686F676B666B06
:100F7000656B6C6F6B6B6A6B696B7F0E706F6F6903
:100F80006E696D69010E716F726F04017C6B7D6B10
:100F90007E6B7F6B640E806F836B846B856B876B5E
:100FA000866BC150C00B0F09C16E070EB46E266868
:100FB0002768286829682A682B682C682D68000132
:100FC000F5EF00F03C0E936E7BEF01F0300E040164
:100FD0008A6F0001C5EF01F0800E04018B6F0001E4
:100FE000C0EC01F0C60EF66E010EF76EF7EF01F0E1
:100FF000400E0401926F00015EEC01F00401886B69
:1010000088513F080EE3036A88510001A7EC00F005
:1010100004018A6F8F6F000108EC02F00401882B35
:10102000EFD7800E926F00015EEC01F0D80EF66EE5
:10103000010EF76E11EF02F0A80ED56ED76AD66AD0
:10104000B50ECD6E0B0ECF6EDC0ECE6EC00EF21254
:101050009D801E0E0401786F796B1D0E7A6F0F0E46
:101060007B6F000148EC02F0040179BF04D0795194
:101070000908D8A0E4D00001F1EC02F0D650040138
:10108000836F8451835D15E083C484F48B6B83C4C8
:101090008AF4000143EF03F068D4010E04018025B7
:1010A000006EE8BE03D00050835D03E3D76A010EF3
:1010B000D66E562C07D0050E8A6F010E8B6F00017D
:1010C00047DD04015650020807E1050E8A6F010E44
:1010D0008B6F00016FDD04015650030807E1050E18
:1010E0008A6F010E8B6F0001A6DD040156500408C3
:1010F00007E1050E8A6F010E8B6F0001DDDD040133
:101100005650050807E1050E8A6F010E8B6F00012E
:1011100015DE04015650060807E1050E8A6F010E20
:101120008B6F000188DD04015650070807E1050EAA
:101130008A6F010E8B6F00017EDD04015650080896
:1011400007E1050E8A6F010E8B6F000101DD0401BE
:101150005650090807E1050E8A6F010E8B6F0001DA
:1011600029DD040156500A0807E1050E8A6F010EB9
:101170008B6F000160DD040156500B0807E1050E7E
:101180008A6F010E8B6F000197DD040156500C0829
:1011900007E1050E8A6F010E8B6F0001CFDD0401A0
:1011A00056500D0807E1050E8A6F010E8B6F000186
:1011B00083DD040156500E0807E1050E8A6F010E0B
:1011C0008B6F0001EED5040156500F0807E1050EA4
:1011D0008A6F010E8B6F00012EDD040156BE05D013
:1011E00056500F0802E2010E566E000157D601C09C
:1011F00089F40401893D01D021D089BF03D08951F0
:10120000090816E38551020813E38553D8B489C44D
:1012100080F4852D0BD080C48EF40A0E8F6F0001F0
:101220005AEC04F0040189510124806F852B06D00B
:1012300089510C0803E1010E806F856B1AD00A0EEC
:10124000795F7C2B7C511408D8B47F6B782B785154
:101250003C080BE1786B7A2B7A513C0806E17A6BFB
:101260007B2B7B51180801E17B6B000148EC02F0FD
:061270000401FBD603009F
:020000040030CA
:0E00000027CC3E1E0087A1000FC00FE00F406E
:00000001FF
;PIC18F4550
;CRC=3EFF  CREATED="23-Nov-20 14:52"
