:1000000042EF01F0000E956E966E956A8C6804685A
:10001000056895928C9295908C90086A076A63EFB8
:1000200001F032C034F0336A335007080EE334BEB7
:1000300002D08D9401D08D84969496908D90969058
:100040008D80D8903436332AEFD71200956A8C6AA7
:1000500004B802D08C9801D08C88959804BC02D04A
:100060008C9C01D08C8C959C04B402D08C9401D0D3
:100070008C84959495928C824CEF00F02EC032F0D7
:10008000D0DF2FC032F0CDDF30C032F0CADF31C058
:1000900032F0C7DF0498DAD7959A8C8A959A8C9AB1
:1000A00095928C9265EF00F027C02AF026C02BF0C5
:1000B00029C02CF028C02DF02AC02EF02BC02FF024
:1000C0002CC030F02DC031F0D9D71200EA6A210ED1
:1000D000E96EEF500DE0060E016E006A002EFED7AD
:1000E000012EFBD77B0E006E002EFED7EF2EF3D72E
:1000F0001200206A2050630812E3276826682968E6
:100100002868D2DF280E216EE1DF276A266A296A75
:10011000286ACADF280E216ED9DF202AEBD768EFC4
:1001200001F0206A20500108D8A0AAD01F6A1E6AD8
:100130001F522BE11E501F0828E31CC022F01DC0D7
:1001400023F01BC025F01AC024F01DC027F01CC0EE
:1001500026F01BC029F01AC028F0A6DFD8901D3069
:10016000256E1C30246E1B30236E1A301A6E23C08D
:100170001BF024C01CF0255080091D6E0A0E216E54
:10018000A5DF1E2AD8B41F2AD3D71F6A1E6A1F52A2
:1001900020E11E501F081DE31CC022F01DC023F0EB
:1001A0001BC025F01AC024F01DC027F01CC026F08B
:1001B0001BC029F01AC028F077DFD8901D321C32FE
:1001C0001B321A320A0E216E81DF1E2AD8B41F2A72
:1001D000DED71F6A1E6A1F522DE11E501F082AE338
:1001E0001CC022F01DC023F01BC025F01AC024F053
:1001F0001DC027F01CC026F01BC029F01AC028F033
:1002000053DFD8901A34226E1B34236E1C34246EB4
:100210001D34256E225001091A6E23C01BF024C024
:100220001CF025C01DF00A0E216E50DF1E2AD8B426
:100230001F2AD1D71F6A1E6A1F5220E11E501F08B5
:100240001DE31CC022F01DC023F01BC025F01AC006
:1002500024F01DC027F01CC026F01BC029F01AC0D6
:1002600028F022DFD8901A361B361C361D360A0EAF
:10027000216E2CDF1E2AD8B41F2ADED7202A52D79F
:1002800069EF01F0F86AD09E93829380310EC86EB8
:10029000280EC66EC78EC79C066A0D6A0E6A0F6A64
:1002A000106A196A1F6A1E6AC150C00B0F09C16E1D
:1002B000070EB46E11681268136814681568166822
:1002C000176818689FD61D6A1C6A1B6A1A6A11D7BC
:0A02D00028D7FDD7010E016E0300D0
:020000040030CA
:0E00000027CC3E1E0087A1000FC00FE00F406E
:00000001FF
;PIC18F4550
;CRC=3D66  CREATED="28-Sep-20 16:34"
