:10000000A5EF01F0F76A140FF66E000EF722090053
:10001000F5501200C0F9A4B0999282F880908883BC
:10002000C6A1868E7F00F76A360FF66E000EF722A5
:100030000900F55012003F7FBFFF000E956E966ECF
:10004000956A8C680468056895928C9295908C905E
:10005000086A076A34EF02F08FC491F40401906BD0
:10006000905107080EE391BF02D08D9401D08D848A
:10007000969496908D9096908D80D8909137902BF5
:10008000EFD700011200956A8C6A05BC02D08C9CE7
:1000900001D08C8C959C05B802D08C9801D08C88AE
:1000A000959805B402D08C9401D08C849594959049
:1000B0008C8067EF00F007C087F408C088F488C41C
:1000C0008FF4CADF87C48FF4C7DF0594DCD7959619
:1000D0008C8695968C9695908C901200E00E071663
:1000E000036A6A515E0FE96E000E0320EA6EEF505C
:1000F0000712E1DF6A2B030E6A1795EF00F0E00E9E
:100100000716036A6A515E0FE96E000E0320EA6E5D
:10011000EF500712D0DF6A07030E6A1795EF00F061
:100120006CA102D0DBD701D0EAD73AEF02F0040E7F
:10013000EA6E870EE96EEF500DE0060E016E006A62
:10014000002EFED7012EFBD77B0E006E002EFED7B1
:10015000EF2EF3D71200006A016A04018A51D89089
:100160008BB10026003201328BB3002600320132FF
:100170008BB50026003201328BB7002600320132E7
:100180008BB90026003201328BBB002600320132CF
:100190008BBD0026003201328BBF002600320132B7
:1001A000000109EF01F00401886988C487F4896BB4
:1001B00089BF03D08951030823E3036A89510001F1
:1001C00032DF0401936A8A6E938481B404D0030EF3
:1001D000886F16D013D0938681B604D0020E886F34
:1001E0000FD00CD0938881B804D0010E886F08D04E
:1001F00005D0938A81BA02D0886B02D0892BD8D7D8
:10020000883D01D00AD089C48AF4040E8B6F0001A6
:10021000A2D7040188510124876F87C401F000012F
:100220001200C1DF01C01AF01A3C01D00ED0010E3D
:100230000401876F00017BDFB6DF01C01AF0B3DF76
:1002400001C01BF01A501B5CFAE01AC001F053EF1A
:1002500002F004018B51016A8A5D03E28AC400F056
:100260000CD0006A080E8C6F8A3700368B51005C08
:10027000D8B0006E01368C2FF7D700011200956AB6
:100280008C6A04B802D08C9801D08C88959804BCF4
:1002900002D08C9C01D08C8C959C04B402D08C94A0
:1002A00001D08C84959495928C8265EF01F08EC478
:1002B0008FF4D2DE8DC48FF4CFDE8CC48FF4CCDE0D
:1002C0008BC48FF4C9DE049CDAD7959E8C9E959ED4
:1002D0008C8E95928C92A3EF01F082C48AF40A0E60
:1002E00004018B6F0001B5DF036A01508BDE04014E
:1002F000876F82C48AF40A0E8B6F0001AADF036A3B
:10030000005080DE0401886F81C48AF40A0E8B6F6E
:1003100000019FDF036A015075DE0401896F81C40B
:100320008AF40A0E8B6F000194DF036A00506ADEC4
:1003300004018A6F87C48BF488C48CF489C48DF45B
:100340008E6F0001B4D794EF02F0F86AD09E9382CA
:100350009380310EC86E280EC66EC78EC79C066A83
:100360000D6A0E6A0F6A106A196A1A6A1B6A1F6A96
:100370001E6A1D6A1C6A236A226A216A010E206EA7
:10038000800E276E266A256A246A2B6A2A6A296AE1
:10039000286A2F6E2E6A316A010E306E336A326A15
:1003A000800E376E366A396A010E386E3B6A3A6AD9
:1003B0003D6A3C6A3E6A200E3F6E406A010E416E05
:1003C000100E426E436A476A466A456A010E446EE1
:1003D0004B6A4A6A496A486E4F684E684D68FE0E1D
:1003E0004C6E800E536E526A516A506A576E566A4E
:1003F000556A546A7F0E5B6E5A6859685868010ED8
:100400005C6E5D6E6A6B6C916C936C950401816B94
:10041000826B846B836B856BC150C00B0F09C16EFF
:10042000070EB46E116812681368146815681668B0
:10043000176818681D0E5E6E170E5F6E1B0E0001AA
:10044000606F0F0E616F1D0E626F150E636F170EDA
:10045000646F130E656F030E666F0B0E676F090EE8
:10046000686F0D0E696FE9D56C93050E6B6F6CA507
:1004700009D056D66BC087F45ADE0401832BD8B45A
:10048000842B000104018351C8080BE1845309E166
:10049000846B836B822B8151825D03E100016C953B
:1004A00004010001BED601C086F40401863D01D0DE
:1004B00039D000016CB515D004018651090810E34C
:1004C000855305E1826B86C481F4852B09D0852D87
:1004D00007D0826B81510A0DF3508625816F856BA1
:1004E0000001040186510A0809E100016CA502D04F
:1004F000040104D06C856C810401856B86510B0866
:1005000009E100016CA502D0040104D06C856C9156
:100510000401856B86510C0805E100016C956C9116
:0C0520000401856B0001D9D6A2D70300AE
:020000040030CA
:0E00000027CC3E1E0087A1000FC00FE00F406E
:00000001FF
;PIC18F4550
;CRC=6A0E  CREATED="21-Dec-20 16:16"
