:04000000DFEF04F03A
:08000800046ED8CF05F0E0CF33
:1000100006F00001E9CF0CF0EACF07F0E1CF08F0DD
:10002000E2CF09F0D9CF0AF0DACF0BF0F3CF12F01C
:10003000F4CF13F0FACF14F0F5CF15F0F6CF16F099
:10004000F7CF17F000C00EF001C00FF002C010F0A3
:1000500003C011F09DA030EF00F09EB0D9EF00F08A
:100060000EC000F00FC001F010C002F011C003F08C
:100070000CC0E9FF07C0EAFF078E08C0E1FF09C016
:10008000E2FF0AC0D9FF0BC0DAFF12C0F3FF13C0B2
:10009000F4FF14C0FAFF15C0F5FF16C0F6FF17C035
:1000A000F7FF045006C0E0FF05C0D8FF1000F76A54
:1000B000BE0FF66E000EF7220900F5501200C0F9CF
:1000C000A4B0999282F880908883C6A1868EBF00E2
:1000D000F76AE00FF66E000EF7220900F5501200E5
:1000E0007FBFDFEFF7FBFDFEF76AF80FF66E000E3D
:1000F000F7220900F55012003F7FBFFFF76A0C0F8F
:10010000F66E010EF7220900F550120000010205FB
:100110000304010220030703060602050303060683
:10012000020303040703072020070706060303044E
:10013000000606050304010107202007000602054A
:100140000304000602030304202020202020F76A75
:100150005E0FF66E010EF7220900F5501200070F30
:100160001F1F1F1F1F1F1F1F1F00000000001C1E3E
:100170001F1F1F1F1F1F00000000001F1F1F1F1F2A
:100180001F1F1F1F1E1C1F1F1F1F1F1F0F071F1FAB
:100190001F0000001F1F1F1F1F1F1F1F1F1FF76AA9
:1001A000AE0FF66E010EF7220900F550120080C066
:1001B00094D404017D2B0B0ECF6EDC0ECE6E9E9080
:1001C000000130EF00F0202020202020000020201F
:1001D000202020200000000E956E966E956A8C6897
:1001E00019681A6895928C9295908C901D6A1C6A79
:1001F0005EEF05F098C49AF40401996B99510708D1
:100200000EE39ABF02D08D9401D08D84969496907F
:100210008D9096908D80D8909A37992BEFD70001CA
:100220001200956A8C6A19B802D08C9801D08C881B
:10023000959819BC02D08C9C01D08C8C959C19B4DB
:1002400002D08C9401D08C84959495928C8212006B
:1002500025C098F4CFDF24C098F4CCDF23C098F4F5
:10026000C9DF22C098F4C6DF1994DBDF95968C862F
:1002700095968C9695928C9247EF01F0040196C466
:1002800023F0231E97C422F0221E0001E1D71200A2
:10029000738173C096F495C497F4F0DF739173C0C3
:1002A00096F495C497F4EADF1200739594C495F41C
:1002B000EFDF210E006E002EFED71200040EEA6E54
:1002C0008C0EE96EEF500DE0060E016E006A002EF6
:1002D000FED7012EFBD77B0E006E002EFED7EF2E31
:1002E000F3D795EF01F07391739373857397380E7D
:1002F0000401946F0001D9DF420E006E002EFED77C
:1003000000000C0E0401946F0001CFDF420E006E5E
:10031000002EFED70000010E0401946F0001C5DF1E
:10032000020E04018C6F0001C9D7060E0401946F00
:100330000001BBDF420E006E002EFED7000061EF11
:1003400005F0738592C495F4A3DF210E006E002E94
:10035000FED7120004018051020802E1A00ED56E02
:100360008051030802E1A10ED56E000112000900C0
:10037000F5520CE0F6CF8CF4F7CF8DF4F5CF92F474
:10038000E0DF8CC4F6FF8DC4F7FFF1D71200800EBA
:100390000401946F000189DFC60EF66E010EF76E40
:1003A000E6DFC00E0401946F00017FDFCE0EF66E13
:1003B000010EF76EDCDF120094C498F41BDF95C4C5
:1003C00098F418DF96C498F415DF97C498F412DFF8
:1003D000199827DF959A8C8A959A8C9A95928C9287
:1003E00003EF02F08DC490F48CC491F48FC492F4A6
:1003F0008EC493F490C494F491C495F492C496F48A
:1004000093C497F4D9D7120004019351016A925D05
:1004100003E292C400F00CD0006A080E946F923789
:1004200000369351005CD8B0006E0136942FF7D798
:1004300000011200200E04018DA9300E8E6F8CC4B5
:1004400000F000AE08D0001E002A00C08CF42D0E73
:100450008E6F8D8F8D8101508CC492F4640E936FDA
:100460000001D2DF00C08CF4300E012404018F6F34
:100470008CC492F40A0E936F0001C6DF300E002484
:100480000401916F300E0124906F8EC400F0300E85
:100490008F5D04E08D838DBF8D8512D08EC48FF467
:1004A000200E8E6F300E905D04E08D818DBF8D83A8
:1004B00007D0D8A48D8104E18FC490F4200E8F6FF3
:1004C0008DB505D08DB307D08DB109D00CD08EC4B9
:1004D00092F4000136DF8FC492F4000132DF90C441
:1004E00092F400012EDF91C492F400012ADFF7EFAD
:1004F00002F0036A04019151000151DE04019225CA
:10050000936F946F0001D1DE1200006A016A04014A
:100510009051D89091B100260032013291B300265B
:100520000032013291B500260032013291B7002627
:100530000032013291B900260032013291BB00260F
:100540000032013291BD00260032013291BF0026F7
:1005500000320132000112008DC491F48EC492F475
:10056000C8DF04018F6B8F51050827E38F51030803
:1005700009E1010E8D25906F916F8EC492F40001F8
:10058000B8DF04018CC490F4060E916F0001BDDF4A
:1005900001500401916B906F036A8F519025016E99
:1005A0009151032201500001A9DD0401906F926F67
:1005B0000001C7DE04018F2BD6D700011200040111
:1005C000802D1BD00001E3DE04018D6B8C6B8F6BE3
:1005D0008E6B000107DF800E0401946F000165DE61
:1005E00085C48CF4180E04018D6F000123D7200EF2
:1005F0000401926F0001A5DE04018051020830E180
:100600000001C5DE85C492F40A0E0401936F000157
:10061000FBDE01C083F4040185C492F40A0E936FDB
:100620000001F2DE00C084F4040183C48CF48D6BFD
:100630008E6B000191DF0401916B030E926F00013C
:1006400058DF300E040184258C6F926F000179DE33
:1006500004018D6B8C6B8F698E690001C3DE040110
:100660008051030830E1000192DE85C492F40A0E45
:100670000401936F0001C8DE01C083F4040185C446
:1006800092F40A0E936F0001BFDE00C084F40401EF
:10069000800E946F000109DE300E040183258C6FFB
:1006A000926F00014EDE84C48CF404018D6B010E48
:1006B0008E6F000151DF04018D698C698F6B8E6B29
:1006C000000190DE0401000112008FC498F492DD55
:1006D0008EC498F48FDD8DC498F48CDD8CC498F4AE
:1006E00089DD199C9EDD959E8C9E959E8C8E9592A3
:1006F0008C92120004018E518F19800B916F8EAF76
:1007000002D08E1F8E2B8FAF02D08F1F8F2B8F5159
:10071000016A8E5D03E28EC400F00CD0006A080E00
:10072000906F8E3700368F51005CD8B0006E013666
:10073000902FF7D791AF02D0011E012A00011200BD
:10074000036A04017F51260FE96E000E0320EA6E52
:100750007CC48EF40A0E8F6F0001CCDF036A005058
:10076000A6DCEF6E036A04017E51260FE96E000ECF
:100770000320EA6E7CC48EF40A0E8F6F0001BADF8C
:10078000036A015094DCEF6E1200956A8C6A1ABC01
:1007900002D08C9C01D08C8C959C1AB802D08C987D
:1007A00001D08C8895981AB402D08C9401D08C8496
:1007B000959495908C801200036A04019051000179
:1007C00087DC016E0401926F921F92C498F40001BD
:1007D00011DD040191C492F4921F92C498F40001B7
:1007E00009DD1A98D2DF959A8C8A959A8C9A959001
:1007F0008C902CEF04F004018FC491F4911F91C4EC
:1008000098F40001F7DC040190C491F4911F91C4A5
:1008100098F40001EFDC1A98B8DF959A8C8A959AC3
:100820008C9A95908C901AEF04F004018F6990696E
:100830000001E1D732EF04F02E6A2E50070814E3CE
:10084000036A2E50260FE96E000E0320EA6EEFCFEA
:1008500091F42EC090F4B0D7A60E006E002EFED7F5
:100860000000E3D72E2AE9D7120004018D698DC458
:100870008CF48E6B8EBF03D08E51030823E3036A82
:100880008E51000131DC0401936A8A6E938481B435
:1008900004D0030E8D6F16D013D0938681B604D08A
:1008A000020E8D6F0FD00CD0938881B804D0010E4A
:1008B0008D6F08D005D0938A81BA02D08D6B02D09B
:1008C0008E2BD8D78D3D01D00AD08EC490F4040E63
:1008D000916F00011ADE04018D5101248C6F8CC4CC
:1008E00001F00001120004018E6B8D5303E18C5165
:1008F0008E5D05E20001A0DF04018E2BF6D700011A
:100900001200B3DF01C02FF02F3C01D00FD0040143
:100910008D6B020E8C6F0001E6DFA7DF01C02FF0A8
:10092000A4DF01C030F02F50305CFAE02FC001F09E
:10093000C4EF05F0030E04018C6F8C5100081AE21D
:10094000036A8C51780F016E040E032203C08EF4EB
:10095000010E8C5D036A780FE96E040E0320EA6EC7
:10096000EFCF8FF48EC4EAFF01C0E9FF8FC4EFFF21
:100970008C07E3D70001D8EF05F004018C6B8C5194
:1009800002081AE3036A8C51780F016E040E0322E9
:1009900003C08EF4010E8C25036A780FE96E040EF5
:1009A0000320EA6EEFCF8FF48EC4EAFF01C0E9FFA7
:1009B0008FC4EFFF8C2BE3D70001E4EF05F0F86A5A
:1009C000D09E078E93829380310EC86E280EC66E1D
:1009D000C78EC79C1B6A226A236A246A256A2E6A0C
:1009E0002F6A306A346A336A326A316A386A376A1F
:1009F000366A010E356E800E3C6E3B6A3A6A396A81
:100A0000406A3F6A3E6A3D6A446E436A466A010E26
:100A1000456E486A476A800E4C6E4B6A4E6A010EFC
:100A20004D6E506A4F6A526A516A536A200E546E74
:100A3000556A010E566E100E576E586A5C6A5B6AF4
:100A40005A6A010E596E606B5F6A5E6A5D6E646918
:100A500063696269FE0E616F800E686F676B666B1B
:100A6000656B6C6F6B6B6A6B696B7F0E706F6F6918
:100A70006E696D69010E716F726F0401806F816B19
:100A80000D0E826F030E856F866B876B896B886B8B
:100A9000C150C00B0F09C16E070EB46E26682768DF
:100AA000286829682A682B682C682D68BF0E786F23
:100AB000796F7A6F7B6F0001EBEF00F03C0E936E65
:100AC00012D4400E0401946F000155EC01F00401B2
:100AD0008A6B8A513F080DE3036A8A510001A7EC33
:100AE00000F004018C6F926F00012BDC04018A2B53
:100AF000F0D700012FDC63DDBF0E04018C6F8D6F1A
:100B00008E6F8F6F0001E1DDA80ED56ED76A030EE0
:100B1000D66EB50ECD6E0B0ECF6EDC0ECE6EC00E49
:100B2000F2129D80040E04017E6F030E7F6F040E8F
:100B30007C6F7D6B000104DE04017DBF04D07D511C
:100B40000908D8A0B5D0000177DE04018051010862
:100B500016E2D650856F8651855D10E085C486F417
:100B600000012DDD010E04018225006EE8BE03D0D8
:100B70000050855D03E3D76A030ED66E03D0D76AB3
:100B800085C4D6FF0001BDD601C08BF404018B3DA6
:100B900001D08DD08BBF03D08B5109081FE3815347
:100BA00002E0000E01D0010E010B0CE00001C2D6E4
:100BB000036A04018B51000157EC00F0E8CF78F490
:100BC0000BD004010001D9D6036A04018B51000146
:100BD00057EC00F0E8CF7BF45AD004018B510A089F
:100BE0000CE1802B8051030802E2010E806F0001AE
:100BF000AAEC01F0E4DC4BD004018B510B081FE19F
:100C0000036A7E51260FE96E000E0320EA6EEF683C
:100C1000036A7F51260FE96E000E0320EA6EEF682B
:100C20007E2B7F2B7EBF04D07E51070801E27E6BB6
:100C30007FBF04D07F51070801E27F6B27D08B5123
:100C40000C081BE1036A7E51260FE96E000E03209B
:100C5000EA6EEF68036A7F51260FE96E000E0320EB
:100C6000EA6EEF687E077F077EAF02D0070E7E6FC9
:100C70007FAF02D0070E7F6F09D08B510E0806E1BF
:100C8000815302E0000E01D0010E816F00010401CA
:100C90008D6B020E8C6F000126DE7BC48CF47AC44F
:100CA0008DF479C48EF478C48FF40FDD04010CD078
:100CB0000A0E7D5F7C2B7C51240802E1040E7C6FC0
:0C0CC00000013EDDB9DD040138D703005F
:020000040030CA
:0E00000027CC3E1E0087A1000FC00FE00F406E
:00000001FF
;PIC18F4550
;CRC=0F68  CREATED="30-Nov-20 15:08"
